:040000001FEF00F0FE
:100008005F82F2AC0AEF00F00CEF00F01DEF00F099
:100018000E012EAB12EF00F014EF00F01DEF00F010
:1000280038AB19EF00F01BEF00F01DEF00F089EC82
:0A0038009FF05F921100B4EF9DF0FD
:10FDD000000D0A204E6F772074686520766F6C6185
:10FDE000746765206F662074686520706172616C4D
:10FDF0006C65722063617073206973207570207464
:10FE00006F20332E3376200D0A000D0A2043415017
:10FE1000313233343536373820696E207061726183
:10FE20006C6C656C200D0A000D0A20434150323382
:10FE3000343536373820696E20706172616C6C65BC
:10FE40006C200D0A000D0A20434150313233343505
:10FE500036373820696E20534552494553200D0AE4
:10FE6000000D0A2043415033343536373820696E4F
:10FE700020706172616C6C656C200D0A000D0A20A7
:10FE80004341503132333435363720696E20534583
:10FE900052494553200D0A000D0A20434150343584
:10FEA00036373820696E20706172616C6C656C2029
:10FEB0000D0A000D0A2043415031323334353620CB
:10FEC000696E20534552494553200D0A000D0A2002
:10FED0004341503536373820696E20706172616C4D
:10FEE0006C656C200D0A000D0A20434150313233FD
:10FEF000343520696E20534552494553200D0A0080
:10FF00000D0A2043415036373820696E20706172E7
:10FF1000616C6C656C200D0A000D0A204341503164
:10FF200032333420696E20534552494553200D0A1F
:10FF3000000D0A20434150373820696E20706172ED
:10FF4000616C6C656C200D0A000D0A204341503134
:10FF5000323320696E20534552494553200D0A0023
:10FF60000D0A20434150313220696E2053455249D9
:10FF70004553200D0A000D0A2061646420616C6CF9
:10FF800020534552494553200D0A000D0A2076633F
:10FF900061705F70726576203D252E32660D0A0015
:10FFA0000D0A20766F635F70726576203D252E32D4
:10FFB000660D0A000D0A2076636170203D252E3201
:10FFC000660D0A000D0A20766F63203D252E3266ED
:10FFD0000D0A000D0A20252E3266200D0A000D0A9A
:10FFE0002564200D0A00494E46004E414E00696EC0
:10FFF00066006E616E006C660031310031320000C7
:020000040001F9
:10000000000E00017B6F000E7A6F36C08CF037C097
:100010008DF038C08EF039C08FF08FBF14EF80F0B4
:1000200012EF80F02AEF80F0000E7B6F010E7A6FE6
:100030008CC001F08DC002F08EC003F08FC004F0C0
:1000400034EC9EF001C08CF002C08DF003C08EF045
:1000500004C08FF0000E0001936F000E926FD1C0AC
:100060007EF0D2C07FF07A517B11D8A43AEF80F0B5
:100070003CEF80F043EF80F0D5A541EF80F043EFF7
:1000800080F05DEF80F07A517B11D8A44AEF80F0C8
:100090004CEF80F052EF80F0000E616F2B0E606F1E
:1000A00056EF80F0000E616F2D0E606F60C000F1A2
:1000B000924B932B7E07D8A07F078CC001F08DC098
:1000C00002F08EC003F08FC004F08CEC98F00104B5
:1000D0000210D8A46EEF80F070EF80F0C7EF80F0D0
:1000E000BF0E3B6EFF0E3C6E3A503D6E3E6A3B507B
:1000F0003D263C503E223E500AE11A0E3D5CD8A0FF
:1001000084EF80F087EF80F0010E88EF80F0000E22
:100110000001626F636B62516311D8B492EF80F09B
:1001200094EF80F0A2EF80F0000E9225016E010E98
:100130009321026EE60E036EFF0E046E9EEC9CF0A1
:10014000AEEF80F0000E9225016E010E9321026E3B
:10015000EE0E036EFF0E046E9EEC9CF00001FD0E91
:100160007E27FF0E7F2334C013F035C014F0000E3D
:10017000156E010E166E7EC017F07FC018F07CEC75
:1001800099F013C034F014C035F052EF86F08CC0F3
:1001900001F08DC002F08EC003F08FC004F08CEC33
:1001A00098F001500210D8A4D8EF80F0DAEF80F078
:1001B00031EF81F0BF0E3B6EFF0E3C6E3A503D6E4C
:1001C0003E6A3B503D263C503E223E500AE11A0E0C
:1001D0003D5CD8A0EEEF80F0F1EF80F0010EF2EF81
:1001E00080F0000E0001646F656B64516511D8B436
:1001F000FCEF80F0FEEF80F00CEF81F0000E922516
:10020000016E010E9321026EEA0E036EFF0E046E64
:100210009EEC9CF018EF81F0000E9225016E010E0D
:100220009321026EF20E036EFF0E046E9EEC9CF0A4
:100230000001FD0E7E27FF0E7F2334C013F035C072
:1002400014F0000E156E010E166E7EC017F07FC002
:1002500018F07CEC99F013C034F014C035F052EF74
:1002600086F0000E0001946F000E956F800E966F61
:100270003F0E976F000E916F000E906F8CC001F0D3
:100280008DC002F08EC003F08FC004F0000E056E2A
:10029000000E066E000E076E000E086EFAEC9AF065
:1002A000D8B055EF81F057EF81F0DAEF81F076EFBB
:1002B00081F094C00FF095C010F096C011F097C077
:1002C00012F0000E136E000E146E200E156E410E0D
:1002D000166E7CEC8BF00FC094F010C095F011C03E
:1002E00096F012C097F00001904B912B8CC028F033
:1002F0008DC029F08EC02AF08FC02BF0000E136E37
:10030000000E146E200E156E410E166E94C00FF086
:1003100095C010F096C011F097C012F07CEC8BF0F5
:100320000FC02CF010C02DF011C02EF012C02FF015
:100330000AEC98F0D8B09FEF81F0A1EF81F059EF6F
:1003400081F0C1EF81F094C001F095C002F096C039
:1003500003F097C004F0000E056E000E066E200E2E
:10036000076E410E086E91EC8DF001C094F002C052
:1003700095F003C096F004C097F000019007D8A054
:1003800091078CC028F08DC029F08EC02AF08FC054
:100390002BF094C02CF095C02DF096C02EF097C095
:1003A0002FF00AEC98F0D8A0D8EF81F0DAEF81F0C6
:1003B000A3EF81F03AC007F0086A6EEC9CF007509A
:1003C0000001816F81C080F0670E8119D8A4EBEF26
:1003D00081F0EDEF81F013EF82F0D351D411D8A466
:1003E000F4EF81F0F6EF81F0FAEF81F0000ED46FB8
:1003F000010ED36FD4BF07EF82F0D45106E1D305CD
:10040000D8B005EF82F007EF82F00DEF82F0000E1A
:100410007D6F060E7C6F1CEF82F0D3C07CF0D4C0E1
:100420007DF01CEF82F0D4BF18EF82F01AEF82F05B
:1004300007EF82F00DEF82F0670E8119D8A423EF49
:1004400082F025EF82F054EF82F091AF33EF82F02B
:10045000FC0E905DFF0E9159D8A031EF82F033EF82
:1004600082F052EF82F0FF0E3B6EFF0E3C6E7CC0BE
:100470003DF07DC03EF03B503D263C503E22905129
:100480003D5C3E50800A3F6E9151800A3F58D8A093
:100490004CEF82F04EEF82F052EF82F0660E806FEA
:1004A00054EF82F0650E806F7CC072F07DC073F0F7
:1004B000670E8119D8A45FEF82F061EF82F071EFCF
:1004C00082F0660E8019D8A468EF82F06AEF82F09D
:1004D00073EF82F091BF71EF82F06FEF82F073EFF4
:1004E00082F0724B732B660E8019D8A47AEF82F0DB
:1004F0007CEF82F09CEF82F091BF83EF82F081EF7E
:1005000082F08FEF82F0000E946F000E956F800ED8
:10051000966F3F0E976F000E916F000E906F670EF3
:100520008119D8B496EF82F098EF82F09CEF82F0B8
:100530009051722791517323000E8B6F000E8A6FBA
:100540008CC082F08DC083F08EC084F08FC085F0A7
:1005500094C074F095C075F096C076F097C077F0AF
:100560002DEF83F082C001F083C002F084C003F05D
:1005700085C004F094C005F095C006F096C007F061
:1005800097C008F091EC8DF001C01AF002C01BF08A
:1005900003C01CF004C01DF0D0EC90F01AC086F02F
:1005A0001BC087F01CC088F01DC089F086C001F018
:1005B00087C002F088C003F089C004F087EC97F090
:1005C00001C078F002C079F082C028F083C029F021
:1005D00084C02AF085C02BF094C013F095C014F0AD
:1005E00096C015F097C016F086C00FF087C010F0C7
:1005F00088C011F089C012F07CEC8BF00FC02CF099
:1006000010C02DF011C02EF012C02FF091EC9DF013
:1006100028C082F029C083F02AC084F02BC085F066
:1006200094C001F095C002F096C003F097C004F0AA
:10063000000E056E000E066E200E076E410E086E4F
:1006400091EC8DF001C094F002C095F003C096F0DB
:1006500004C097F000018A4B8B2B72518A5D8B513D
:10066000800A3B6E7351800A3B58D8A03AEF83F062
:100670003CEF83F0B2EF82F094C00FF095C010F021
:1006800096C011F097C012F0000E136E000E146E9B
:10069000A00E156E400E166E7CEC8BF00FC086F02F
:1006A00010C087F011C088F012C089F082C028F015
:1006B00083C029F084C02AF085C02BF086C02CF0BE
:1006C00087C02DF088C02EF089C02FF00AEC98F07A
:1006D000D8B06DEF83F06FEF83F07AEF83F0000E08
:1006E0000001866F000E876F000E886F000E896F05
:1006F000A3EF83F082C001F083C002F084C003F056
:1007000085C004F086C005F087C006F088C007F0F9
:1007100089C008F0FAEC9AF0D8A091EF83F093EF3B
:1007200083F0A3EF83F0000178B199EF83F09BEFA2
:1007300083F0A3EF83F0000E866F000E876F000E2C
:10074000886F000E896F8CC001F08DC002F08EC0E2
:1007500003F08FC004F086C005F087C006F088C0A3
:1007600007F089C008F01CEC89F001C082F002C0DB
:1007700083F003C084F004C085F082C028F083C0F9
:1007800029F084C02AF085C02BF0000E136E000EF5
:10079000146E200E156E410E166E74C00FF075C0EB
:1007A00010F076C011F077C012F07CEC8BF00FC027
:1007B0002CF010C02DF011C02EF012C02FF00AEC5A
:1007C00098F0D8A0E6EF83F0E8EF83F011EF84F023
:1007D0000001904B912B74C00FF075C010F076C0E3
:1007E00011F077C012F0000E136E000E146E200E82
:1007F000156E410E166E7CEC8BF00FC074F010C0BD
:1008000075F011C076F012C077F0660E0001801905
:10081000D8A40DEF84F00FEF84F011EF84F0724B49
:10082000732B74C094F075C095F076C096F077C0C5
:1008300097F0650E00018019D8B421EF84F023EF02
:1008400084F029EF84F090C070F091C071F02DEF2A
:1008500084F0000E716F000E706F000E6F6F000E4F
:100860006E6F000E6D6F000E6C6F000E8B6F000EC2
:100870008A6F28EF85F082C001F083C002F084C047
:1008800003F085C004F094C005F095C006F096C052
:1008900007F097C008F091EC8DF001C01AF002C08B
:1008A0001BF003C01CF004C01DF0D0EC90F01AC087
:1008B00086F01BC087F01CC088F01DC089F086C080
:1008C00001F087C002F088C003F089C004F087EC13
:1008D00097F001C078F002C079F00001D5B973EF4C
:1008E00084F075EF84F092EF84F078517911D8A4F8
:1008F0007CEF84F07EEF84F092EF84F0670E811934
:10090000D8A485EF84F087EF84F092EF84F071BF74
:100910008EEF84F08CEF84F092EF84F06C4B6D2BB3
:10092000DCEF84F06E516F11D8A499EF84F09BEF47
:1009300084F0C5EF84F071BFA2EF84F0A0EF84F0E3
:10094000C5EF84F0000E9225D96E010E9321DA6E68
:100950002E0EDF6E924B932B7E07D8A07F07000EE2
:100960006F6F010E6E6FC5EF84F0000E9225D96E89
:10097000010E9321DA6E300EDF6E924B932B7E07C1
:10098000D8A07F076C07D8A06D076C516D11D8A453
:10099000CCEF84F0CEEF84F0B5EF84F0000E92251A
:1009A000D96E010E9321DA6E7851300FDF6E924BC3
:1009B000932B7E07D8A07F0782C028F083C029F040
:1009C00084C02AF085C02BF094C013F095C014F0B9
:1009D00096C015F097C016F086C00FF087C010F0D3
:1009E00088C011F089C012F07CEC8BF00FC02CF0A5
:1009F00010C02DF011C02EF012C02FF091EC9DF020
:100A000028C082F029C083F02AC084F02BC085F072
:100A100094C001F095C002F096C003F097C004F0B6
:100A2000000E056E000E066E200E076E410E086E5B
:100A300091EC8DF001C094F002C095F003C096F0E7
:100A400004C097F000017007D8A071078A4B8B2B68
:100A500072518A5D8B51800A3B6E7351800A3B58FC
:100A6000D8B035EF85F037EF85F045EF85F093BFCF
:100A700043EF85F0935109E14B0E925DD8A043EF0F
:100A800085F045EF85F03BEF84F06E516F11D8A4EF
:100A90004CEF85F04EEF85F05FEF85F0D5A953EF71
:100AA00085F055EF85F05FEF85F0000E9225D96E49
:100AB000010E9321DA6E2E0EDF6E924B932B000EF9
:100AC0009225D96E010E9321DA6E000EDF6E650E4F
:100AD0008019D8A46EEF85F070EF85F040EF86F0B6
:100AE000000E8B6F4F0E8A6F000E8A25D96E010E95
:100AF0008B21DA6E000EDF6E000E7B6F000E7A6FB8
:100B000091BF87EF85F085EF85F08FEF85F0000EC0
:100B10007B6F010E7A6F906D911FD8B0912B000EF4
:100B20007D6F020E7C6FC0EF85F08A07D8A08B071F
:100B3000000E8A25D96E010E8B21DA6E90C001F06D
:100B400091C002F0000E046E0A0E036EA2EC9AF041
:100B50000150300FDF6E90C001F091C002F0000E26
:100B6000046E0A0E036EDFEC99F001C090F002C033
:100B700091F000017C07D8A07D077E07D8A07F07F1
:100B800090519111D8A4C7EF85F0C9EF85F095EF8A
:100B900085F07DBFD6EF85F07D5106E17C05D8B0AC
:100BA000D4EF85F0D6EF85F095EF85F08A07D8A0D1
:100BB0008B077A517B11D8A4E0EF85F0E2EF85F046
:100BC000E8EF85F0000E676F2B0E666FECEF85F097
:100BD000000E676F2D0E666F000E8A25D96E010E0E
:100BE0008B21DA6E66C0DFFF7E07D8A07F078A07F9
:100BF000D8A08B07BF0E3B6EFF0E3C6E3A503D6E89
:100C00003E6A3B503D263C503E223E500AE11A0EC1
:100C10003D5CD8A00EEF86F011EF86F0010E12EFCA
:100C200086F0000E6A6F6B6B6A516B11D8A41BEFD4
:100C300086F01DEF86F023EF86F0000E696F650EDB
:100C4000686F27EF86F0000E696F450E686F000E23
:100C50008A25D96E010E8B21DA6E68C0DFFF7E0710
:100C6000D8A07F07000E9225016E010E9321026E1F
:100C7000000E8A25036E010E8B21046E9EEC9CF003
:100C800034C013F035C014F0000E156E010E166E50
:100C90007EC017F07FC018F07CEC99F013C034F0E0
:100CA00014C035F0120044C0D9FF45C0DAFFDECFD2
:100CB000F6FFDDCFF7FF000EF86E0800F550250AAD
:100CC000D8A465EF86F067EF86F0FEEF88F044C0A9
:100CD000D9FF45C0DAFFDE2A000EDD22000E00013A
:100CE000D26F000ED16FD1C0D5F0D2C0D6F0D3698B
:100CF000D46944C0D9FF45C0DAFFDECFF6FFDDCFAF
:100D0000F7FF000EF86E0800F5502E0AD8A48BEFFE
:100D100086F08DEF86F00FEF87F0000ED46F000E97
:100D2000D36F44C0D9FF45C0DAFFDE2A000EDD22B2
:100D300044C0D9FF45C0DAFFDECFF6FFDDCFF7FFB5
:100D4000000EF86E0800F5502A0AD8A4AAEF86F023
:100D5000ACEF86F0C9EF86F044C0D9FF45C0DAFF9A
:100D6000DE2A000EDD2246C0D9FF47C0DAFFDFCF02
:100D700048F0020EDE26DFCF49F0000EDD2248C02B
:100D8000D9FF49C0DAFFDECFD3F0DDCFD4F00FEFCB
:100D900087F044C0D9FF45C0DAFFDECF08F0DDCFD1
:100DA00009F06EEC94F008C0D3F009C0D4F0E0EF85
:100DB00086F044C0D9FF45C0DAFFDE2A000EDD22EE
:100DC000D00E486EFF0E496E44C0D9FF45C0DAFF11
:100DD000DECFF6FFDDCFF7FF000EF86E0800F5500E
:100DE0004A6E4B6A48504A2649504B224B500AE102
:100DF0000A0E4A5CD8A0FFEF86F002EF87F0010EE2
:100E000003EF87F0000E0001A06FA16BA051A111AC
:100E1000D8A40DEF87F00FEF87F0D9EF86F044C02C
:100E2000D9FF45C0DAFFDECFF6FFDDCFF7FF000EBA
:100E3000F86E0800F550076E086A6EEC9CF00750DB
:100E40000001A86FA851D8B428EF87F02AEF87F0E7
:100E500068EF87F044C0D9FF45C0DAFFDECF48F025
:100E6000DDCF49F0010E4826000E492248C0F6FFAA
:100E700049C0F7FF000EF86E0800F550076E086ACB
:100E80006EEC9CF007500001A96FA951D8B44BEF4C
:100E900087F04DEF87F068EF87F044C0D9FF45C079
:100EA000DAFFDECF48F0DDCF49F0020E4826000E13
:100EB000492248C0F6FF49C0F7FF000EF86E08004F
:100EC000F550076E086A6EEC9CF007500001AA6F9F
:100ED00044C0D9FF45C0DAFFDECFF6FFDDCFF7FF14
:100EE000000EF86E0800F550640AD8B47AEF87F067
:100EF0007CEF87F090EF87F044C0D9FF45C0DAFF60
:100F0000DECFF6FFDDCFF7FF000EF86E0800F550DC
:100F1000690AD8A48EEF87F090EF87F0D0EF87F0C2
:100F200044C0D9FF45C0DAFFDE2A000EDD2246C0EC
:100F3000D9FF47C0DAFFDFCF48F0020EDE26DFCF51
:100F400049F0000EDD2248C0D9FF49C0DAFFDECFEC
:100F500098F0DDCF99F0000E99BFFF0E9A6F9B6F4E
:100F60009C6F9D6F9E6F9F6F42C01EF043C01FF02D
:100F700098C020F099C021F09AC022F09BC023F0C5
:100F80009CC024F09DC025F09EC026F09FC027F095
:100F90005EEC8FF01EC042F01FC043F01BEF89F0E3
:100FA000660EA819D8A4D7EF87F0D9EF87F01BEF0A
:100FB00088F044C0D9FF45C0DAFFDECFF6FFDDCFB1
:100FC000F7FF000EF86E0800F5CFABF044C0D9FF74
:100FD00045C0DAFFDE2A000EDD2246C0D9FF47C039
:100FE000DAFFDFCF48F0040EDE26DFCF49F0000E37
:100FF000DD2248C0D9FF49C0DAFFDECFA4F0DECF42
:10100000A5F0DECFA6F0DECFA7F042C034F043C09B
:1010100035F0A4C036F0A5C037F0A6C038F0A7C0A0
:1010200039F0ABC03AF000EC80F034C042F035C08B
:1010300043F01BEF89F0A80E016E000E026EF60E53
:10104000036EFF0E046E000E066E020E056E0BECB4
:1010500099F001500210D8A430EF88F032EF88F0F8
:10106000C6EF88F044C0D9FF45C0DAFFDECF48F0B4
:10107000DDCF49F0010E4826000E492248C0F6FF98
:1010800049C0F7FF000EF86E0800F5CFABF0BF0EB9
:10109000486EFF0E496E44C0D9FF45C0DAFFDECF6F
:1010A000F6FFDDCFF7FF000EF86E0800F5504A6E30
:1010B0004B6A48504A2649504B224B500AE11A0EBF
:1010C0004A5CD8A066EF88F069EF88F0010E6AEFFD
:1010D00088F0000E0001A26FA36BA251A311D8B437
:1010E00074EF88F076EF88F090EF88F046C0D9FF73
:1010F00047C0DAFFDFCF48F0040EDE26DFCF49F02D
:10110000000EDD2248C0D9FF49C0DAFFDECFA4F0CF
:10111000DECFA5F0DECFA6F0DECFA7F0A8EF88F0F7
:1011200046C0D9FF47C0DAFFDFCF48F0040EDE2605
:10113000DFCF49F0000EDD2248C0D9FF49C0DAFFF9
:10114000DECFA4F0DECFA5F0DECFA6F0DECFA7F095
:10115000020E44C0D9FF45C0DAFFDE26000EDD22B4
:1011600042C034F043C035F0A4C036F0A5C037F01B
:10117000A6C038F0A7C039F0ABC03AF000EC80F060
:1011800034C042F035C043F01BEF89F044C0D9FFB2
:1011900045C0DAFFDECFF6FFDDCFF7FF000EF86EB9
:1011A0000800F550250AD8A4D8EF88F0DAEF88F0C7
:1011B000F1EF88F044C0D9FF45C0DAFFDE2A000E07
:1011C000DD22000E046E250E036E42C005F043C002
:1011D00006F04FEC9BF0000E436E010E426E1BEFCB
:1011E00089F044C0D9FF45C0DAFFDE2A000EDD22B7
:1011F000000E436E000E426E1BEF89F044C0D9FF13
:1012000045C0DAFFDECFF6FFDDCFF7FF000EF86E48
:101210000800F550036E046A42C005F043C006F0B2
:101220004FEC9BF044C0D9FF45C0DAFFDE2A000E28
:10123000DD22EBEF88F012000450800B0D6E04509D
:1012400004240F6E03AE27EF89F029EF89F02AEF0F
:1012500089F00F800F50D8B430EF89F032EF89F069
:1012600047EF89F00F28D8A438EF89F03AEF89F0DA
:1012700042EF89F0000E016E000E026E000E036E4A
:10128000000E046E038E000E046E4FEF89F0000E08
:10129000016E000E026E000E036E000E046E08500A
:1012A000800B0E6E0D500E18D8B459EF89F05BEF1D
:1012B00089F05CEF89F00D8C085008240E6E07AEA3
:1012C00064EF89F066EF89F067EF89F00E800E50C9
:1012D000D8B46DEF89F06FEF89F084EF89F00E28B4
:1012E000D8A475EF89F077EF89F07FEF89F0000ED1
:1012F000056E000E066E000E076E000E086E078E5D
:10130000000E086E8CEF89F0000E056E000E066E62
:10131000000E076E000E086E0F500E5CD8B093EFF3
:1013200089F095EF89F0BCEF89F00DAC9AEF89F068
:101330009CEF89F09EEF89F0800E0D1A0FC010F01F
:101340000EC00FF010C00EF001C010F005C001F08B
:1013500010C005F002C010F006C002F010C006F088
:1013600003C010F007C003F010C007F004C010F075
:1013700008C004F010C008F0000E106E0F500EC030
:1013800009F00A6A095E000E0A5A0ABED1EF89F016
:101390000A5009E11A0E095CD8A0D1EF89F0D3EF09
:1013A00089F00AEF8AF00150021003100410D8A44B
:1013B000DCEF89F0DFEF89F0010EE0EF89F0000E3D
:1013C000106E000E016E000E026E000E036E000E17
:1013D000046E0EC00FF013EF8AF010A0F2EF89F048
:1013E000F4EF89F0FAEF89F0D89010300109106E0F
:1013F000FCEF89F0D890103201A001EF8AF003EFE2
:101400008AF004EF8AF0108E043404320332023280
:1014100001320F2A0E500F5CD8A011EF8AF013EFA3
:101420008AF0EDEF89F00DBC18EF8AF01AEF8AF020
:101430005AEF8AF00F50D8A420EF8AF022EF8AF0FA
:101440002CEF8AF0000E016E000E026E000E036E8D
:10145000000E046E7BEF8BF0055001260650022231
:10146000075003220850042204A039EF8AF03BEF12
:101470008AF0E7EF8AF010A040EF8AF042EF8AF09E
:1014800048EF8AF0D89010300109106E4AEF8AF0C8
:10149000D890103201A04FEF8AF051EF8AF052EF4E
:1014A0008AF0108E043404320332023201320F2AE1
:1014B000E7EF8AF00550015C0650025807500358C8
:1014C0000450800A096E0850800A0958D8B06BEFA2
:1014D0008AF06DEF8AF098EF8AF00150055C096E92
:1014E000025006580A6E035007580B6E04500858F5
:1014F0000C6EFF0E0924016EFF0E0A20026EFF0E15
:101500000B20036EFF0E0C20046E800E0D1A106C63
:101510001050D8A48EEF8AF090EF8AF0A0EF8AF0F6
:10152000010E0126000E022203220422A0EF8AF0FF
:101530000550015E0650025A0750035A0850045ADB
:101540000150021003100410D8A4A9EF8AF0ABEFE9
:101550008AF0E0EF8AF01050D8A4B1EF8AF0B3EF30
:101560008AF0E0EF8AF0000E016E000E026E000EAF
:10157000036E000E046E7BEF8BF0D89001360236BE
:101580000336043610AEC7EF8AF0C9EF8AF0CAEF0F
:101590008AF0018010A0CFEF8AF0D1EF8AF0D5EF6A
:1015A0008AF0D8801036D7EF8AF0D89010360F50D6
:1015B000D8B4DDEF8AF0DFEF8AF0E0EF8AF00F06B3
:1015C00003AEE5EF8AF0E7EF8AF0BDEF8AF0000E98
:1015D0000E6E10AEEEEF8AF0F0EF8AF008EF8BF0AF
:1015E00010C009F07F0E0916D8B4F9EF8AF0FBEFAE
:1015F0008AF0FFEF8AF0010E0E6E08EF8BF001A06B
:1016000004EF8BF006EF8BF008EF8BF0FBEF8AF026
:101610000E50D8B40EEF8BF010EF8BF03BEF8BF049
:10162000010E0126000E02220322042204A01BEF59
:101630008BF01DEF8BF03BEF8BF001C009F002C087
:101640000AF003C00BF004C00CF00C340C320B3267
:101650000A32093209C001F00AC002F00BC003F0DF
:101660000CC004F00F28D8B438EF8BF03AEF8BF0B1
:101670003BEF8BF00F2A0F28D8B441EF8BF043EFEC
:101680008BF04BEF8BF00F50D8A449EF8BF04BEF62
:101690008BF05DEF8BF0000E016E000E026E000EFF
:1016A000036E000E046E0F50D8A459EF8BF05BEF61
:1016B0008BF05DEF8BF0000E0D6E0FA062EF8BF0E4
:1016C00064EF8BF067EF8BF0038E68EF8BF0039E77
:1016D000D8900F30046E0DAE70EF8BF072EF8BF080
:1016E00073EF8BF0048E01C001F002C002F003C062
:1016F00003F004C004F012001250800B1B6E125055
:101700001224216E11AE87EF8BF089EF8BF08AEFF8
:101710008BF021802150D8B490EF8BF092EF8BF0BA
:10172000A5EF8BF02128D8A498EF8BF09AEF8BF0DF
:10173000A2EF8BF0000E0F6E000E106E000E116EF9
:10174000000E126E118EADEF8BF0000E0F6E000EBC
:10175000106E000E116E000E126E1650800B1B1ACA
:1017600016501624206E15AEB8EF8BF0BAEF8BF042
:10177000BBEF8BF020802050D8B4C1EF8BF0C3EFCB
:101780008BF0D6EF8BF02028D8A4C9EF8BF0CBEFED
:101790008BF0D3EF8BF0000E136E000E146E000E64
:1017A000156E000E166E158EDEEF8BF0000E136EAA
:1017B000000E146E000E156E000E166E2050D8B47A
:1017C000E4EF8BF0E6EF8BF0EEEF8BF02150D8A436
:1017D000ECEF8BF0EEEF8BF0F8EF8BF0000E0F6E6E
:1017E000000E106E000E116E000E126E90EF8DF056
:1017F00015500F02F3CF26F0F4CF27F026501C6EC1
:101800001D6A1E6A1F6A2750226E236A246A256A8F
:1018100014501002F3CF26F0F4CF27F026501C26E8
:10182000000E1D221E221F2227502226000E2322D8
:101830002422252213501102F3CF26F0F4CF27F0F3
:1018400026501C26000E1D221E221F222750222653
:10185000000E2322242225221EC01FF01DC01EF0D0
:101860001CC01DF01C6A13501002F3CF26F0F4CFF9
:1018700027F026501C2627501D22000E1E22000E87
:101880001F2214500F02F3CF26F0F4CF27F026507A
:101890001C2627501D22000E1E22000E1F221EC0D5
:1018A0001FF01DC01EF01CC01DF01C6A13500F025B
:1018B000F3CF26F0F4CF27F026501C2627501D2208
:1018C000000E1E22000E1F2215501002F3CF26F02C
:1018D000F4CF27F02650222627502322000E242260
:1018E000000E252214501102F3CF26F0F4CF27F07A
:1018F0002650222627502322000E2422000E2522C5
:1019000015501102F3CF26F0F4CF27F02650176EB2
:101910002750186E196A1A6A19C01AF018C019F0FF
:1019200017C018F0176A1750222618502322195092
:1019300024221A5025221CC017F01DC018F01EC00A
:1019400019F01FC01AF0190EABEF8CF0D8901A32B4
:10195000193218321732E82EA6EF8CF017502226D3
:1019600018502322195024221A5025221EC01FF07D
:101970001DC01EF01CC01DF01C6A205021C017F0B5
:10198000186A1726000E1822820E1724266EFF0EE4
:101990001820276EE1EF8CF0D890223623362436BB
:1019A00025361FAED6EF8CF0D8EF8CF0D9EF8CF047
:1019B0002280D8901C361D361E361F362606D8A02B
:1019C000270624AEE6EF8CF0E8EF8CF0CCEF8CF03D
:1019D000000E206E1FAEEFEF8CF0F1EF8CF015EFE4
:1019E0008DF0FF0E1C14176EFF0E1D14186EFF0EE7
:1019F0001E14196E7F0E1F141A6E1750181019102E
:101A00001A10D8B406EF8DF008EF8DF00CEF8DF0C2
:101A1000010E206E15EF8DF022A011EF8DF013EF67
:101A20008DF015EF8DF008EF8DF02050D8B41BEF3E
:101A30008DF01DEF8DF041EF8DF0010E2226000E8E
:101A400023222422252225A028EF8DF02AEF8DF0D5
:101A500041EF8DF022C017F023C018F024C019F018
:101A600025C01AF01A341A3219321832173217C038
:101A700022F018C023F019C024F01AC025F0264A1D
:101A8000272A27BE4CEF8DF0275008E12628D8A042
:101A90004CEF8DF04EEF8DF058EF8DF0000E226E72
:101AA000000E236E800E246E7F0E256E86EF8DF065
:101AB00027BE65EF8DF0275006E12604D8B063EF0E
:101AC0008DF065EF8DF071EF8DF0000E226E000E3F
:101AD000236E000E246E000E256E000E1B6E86EF28
:101AE0008DF026C021F0FF0E2216FF0E23167F0E6A
:101AF0002416000E251621A080EF8DF082EF8DF0C8
:101B000083EF8DF0248ED8902130256E1B50251246
:101B100022C00FF023C010F024C011F025C012F035
:101B200012000450800B116E04500424186E03AE92
:101B30009CEF8DF09EEF8DF09FEF8DF01880185088
:101B4000D8B4A5EF8DF0A7EF8DF0BCEF8DF018287D
:101B5000D8A4ADEF8DF0AFEF8DF0B7EF8DF0000EA4
:101B6000016E000E026E000E036E000E046E038EF8
:101B7000000E046EC4EF8DF0000E016E000E026EBA
:101B8000000E036E000E046E0850800B111A0850F0
:101B90000824196E07AECFEF8DF0D1EF8DF0D2EFA4
:101BA0008DF019801950D8B4D8EF8DF0DAEF8DF0A0
:101BB000EFEF8DF01928D8A4E0EF8DF0E2EF8DF073
:101BC000EAEF8DF0000E056E000E066E000E076E39
:101BD000000E086E078E000E086EF7EF8DF0000EF7
:101BE000056E000E066E000E076E000E086E0550A4
:101BF000061007100810D8A400EF8EF002EF8EF048
:101C00001AEF8EF0000E016E000E026E000E036ED3
:101C1000000E046E800E03127F0E04121150041287
:101C200001C001F002C002F003C003F004C004F0E0
:101C30005DEF8FF01850D8A420EF8EF022EF8EF0D9
:101C40002CEF8EF0000E016E000E026E000E036E81
:101C5000000E046E5DEF8FF0195018C009F00A6A8B
:101C6000095E000E0A5A7F0E0924126E000E0A2029
:101C7000136E01C00DF002C00EF003C00FF004C0DF
:101C800010F0000E016E000E026E000E036E000ECC
:101C9000046E000E146E000E156E000E166E000E11
:101CA000176E000E196E8DEF8EF01950D8B45BEFE1
:101CB0008EF05DEF8EF074EF8EF0D8900D360E360C
:101CC0000F361036D890013602360336043617AE7A
:101CD0006CEF8EF06EEF8EF06FEF8EF00180D8908B
:101CE000143615361636173605500D5C06500E584C
:101CF00007500F5808501058D8A081EF8EF083EF8E
:101D00008EF08CEF8EF0178C05500D5E06500E5A3B
:101D100007500F5A0850105A192A190E196493EFD8
:101D20008EF095EF8EF055EF8EF00D500E100F10D7
:101D30001010D8B49EEF8EF0A0EF8EF0B8EF8EF0BA
:101D40001480B8EF8EF0D890013602360336043690
:101D500017AEADEF8EF0AFEF8EF0B0EF8EF00180EA
:101D6000D89014361536163617361206D8A0130634
:101D700003AEBDEF8EF0BFEF8EF0A3EF8EF0000E3E
:101D8000196E17AEC6EF8EF0C8EF8EF0ECEF8EF046
:101D9000FF0E1414096EFF0E15140A6EFF0E1614B2
:101DA0000B6E7F0E17140C6E09500A100B100C10DE
:101DB000D8B4DDEF8EF0DFEF8EF0E3EF8EF0010EA2
:101DC000196EECEF8EF001A0E8EF8EF0EAEF8EF0E6
:101DD000ECEF8EF0DFEF8EF01950D8B4F2EF8EF00A
:101DE000F4EF8EF018EF8FF0010E0126000E0222A4
:101DF0000322042204A0FFEF8EF001EF8FF018EF12
:101E00008FF001C009F002C00AF003C00BF004C05B
:101E10000CF00C340C320B320A32093209C001F0DA
:101E20000AC002F00BC003F00CC004F0124A132ADF
:101E300013BE23EF8FF0135008E11228D8A023EF30
:101E40008FF025EF8FF030EF8FF0000E136E1268D9
:101E5000000E016E000E026E000E036E000E046E88
:101E600013BE3DEF8FF0135006E11204D8B03BEFE4
:101E70008FF03DEF8FF04BEF8FF0000E136E000EE2
:101E8000126E000E016E000E026E000E036E000E4A
:101E9000046E000E116E12C018F018A052EF8FF0F1
:101EA00054EF8FF057EF8FF0038E58EF8FF0039EB3
:101EB000D8901830046E0EEF8EF0120020C038F06B
:101EC00021C039F022C03AF023C03BF024C03CF0DE
:101ED00025C03DF026C03EF027C03FF03FBE73EF67
:101EE0008FF076EF8FF0010E77EF8FF0000E366EE9
:101EF000376A36503710D8B480EF8FF082EF8FF00A
:101F000092EF8FF03F1E3E1E3D1E3C1E3B1E3A1EB2
:101F1000391E386C000E39223A223B223C223D22E7
:101F20003E223F220001D4BF98EF8FF09AEF8FF04E
:101F30009BEF8FF0D593D4BFA8EF8FF0D45106E17B
:101F4000D305D8B0A6EF8FF0A8EF8FF0AEEF8FF0EB
:101F5000000E336E010E326EB2EF8FF0D3C032F04E
:101F6000D4C033F0D1C034F0D2C035F03650371081
:101F7000D8A4BDEF8FF0BFEF8FF0C6EF8FF0D5A5DF
:101F8000C4EF8FF0C6EF8FF0C9EF8FF03406D8A002
:101F90003506000E416E4F0E406E000E01014F6F70
:101FA0004EEF90F04006D8A04106000E4024D96EB6
:101FB000010E4120DA6E38C001F039C002F03AC09B
:101FC00003F03BC004F03CC005F03DC006F03EC04D
:101FD00007F03FC008F00A0E096E000E0A6E000EF0
:101FE0000B6E000E0C6E000E0D6E000E0E6E000ECF
:101FF0000F6E000E106ED5EC96F001C028F002C0F6
:1020000029F003C02AF004C02BF005C02CF006C054
:102010002DF007C02EF008C02FF028C013F02AC002
:1020200014F0F8EC9DF01350300FDF6E3206D8A09C
:1020300033063406D8A0350638C001F039C002F0A6
:102040003AC003F03BC004F03CC005F03DC006F0D0
:102050003EC007F03FC008F00A0E096E000E0A6E7F
:10206000000E0B6E000E0C6E000E0D6E000E0E6E4E
:10207000000E0F6E000E106E11EC96F001C038F0DD
:1020800002C039F003C03AF004C03BF005C03CF098
:1020900006C03DF007C03EF008C03FF041BE59EF1A
:1020A00090F0415008E14004D8A059EF90F05BEF68
:1020B00090F08CEF90F0385039103A103B103C10F3
:1020C0003D103E103F10D8A468EF90F06AEF90F0FA
:1020D000D2EF8FF033BE77EF90F0335006E1320449
:1020E000D8B075EF90F077EF90F0D2EF8FF035BE6B
:1020F00082EF90F0355008E13404D8A082EF90F0E0
:1021000084EF90F08CEF90F00001D5B38AEF90F05F
:102110008CEF90F0D2EF8FF036503710D8A493EFB9
:1021200090F095EF90F09DEF90F00001D5A59BEF1A
:1021300090F09DEF90F0BBEF90F04006D8A04106E4
:1021400036503710D8A4A7EF90F0A9EF90F0AFEF7A
:1021500090F0000E316E2B0E306EB3EF90F0000E4B
:10216000316E2D0E306E000E4024D96E010E4120CE
:10217000DA6E30C0DFFF1EC013F01FC014F0000E77
:102180004024156E010E4120166E34C017F035C084
:1021900018F07CEC99F013C01EF014C01FF0120070
:1021A000B4C02AF0B5C02BF0B6C02CF0B7C02DF0EB
:1021B0001AC02AF01BC02BF01CC02CF01DC02DF043
:1021C000810E1E6EFF0E1F6E2AC020F02BC021F064
:1021D0002CC022F02DC023F0180EF4EF90F0D89010
:1021E0002332223221322032E82EEFEF90F02050BD
:1021F0001E24286E000E1F20296E29BE09EF91F0C3
:10220000295009E1170E285CD8A009EF91F00BEFD7
:1022100091F015EF91F01AC01AF01BC01BF01CC012
:102220001CF01DC01DF0D8EF91F029BE1AEF91F0FF
:102230001CEF91F08CEF91F028C01EF0FF0E1F6E86
:10224000FF0E206E7F0E216E000E226E1E662BEF9B
:1022500091F033EF91F022342232213220321F32BA
:102260001E2E26EF91F01FC024F020C025F021C0C3
:1022700026F022C027F024502A141E6E25502B145D
:102280001F6E26502C14206E27502D14216E1E50C8
:102290001F1020102110D8A450EF91F052EF91F0B0
:1022A00054EF91F00BEF91F02AC01EF02BC01FF0FD
:1022B0002CC020F02DC021F0200E64EF91F0D890BA
:1022C000213220321F321E32E82E5FEF91F01E5075
:1022D0001F1020102110D8B470EF91F072EF91F020
:1022E0007AEF91F024502A2625502B2226502C22BA
:1022F00027502D22241C1E6E251C1F6E261C206EAE
:10230000271C216E1E502A161F502B1620502C16EB
:1023100021502D16D0EF91F02AC01EF02BC01FF0D7
:102320002CC020F02DC021F0200E9CEF91F0D89011
:10233000213220321F321E32E82E97EF91F01E50CC
:102340001F1020102110D8A4A8EF91F0AAEF91F04F
:10235000B4EF91F0000E2A6E000E2B6E000E2C6E64
:10236000000E2D6ED0EF91F0D8902A341E6E2B34D3
:102370001F6E2C34206E2D34216E1E501F10201025
:102380002110D8B4C6EF91F0C8EF91F0D0EF91F0E2
:10239000000E2A6E000E2B6E800E2C6EBF0E2D6E60
:1023A0002AC01AF02BC01BF02CC01CF02DC01DF051
:1023B0001200000E0001B06F000EB16F000EB26F80
:1023C000000EB36F010E27EC9FF045EC9DF032C07C
:1023D000ACF033C0ADF034C0AEF035C0AFF0C40ED9
:1023E000546EFF0E556EACC056F0ADC057F0AEC087
:1023F00058F0AFC059F0CEEC9EF0A00E546EFF0E18
:10240000556EC8C056F0C9C057F0CAC058F0CBC00E
:1024100059F0CEEC9EF06BEC9DF032C0B0F033C0C2
:10242000B1F034C0B2F035C0B3F0B40E546EFF0E4C
:10243000556EB0C056F0B1C057F0B2C058F0B3C03E
:1024400059F0CEEC9EF08B0E546EFF0E556EC0C050
:1024500056F0C1C057F0C2C058F0C3C059F0CEEC1E
:102460009EF0660E136E660E146E660E156E3F0EAF
:10247000166EC4C00FF0C5C010F0C6C011F0C7C0C2
:1024800012F07CEC8BF00FC028F010C029F011C0C6
:102490002AF012C02BF0B0C02CF0B1C02DF0B2C0A9
:1024A0002EF0B3C02FF00AEC98F0D8B05AEF92F0AB
:1024B0005CEF92F060EF92F095EC93F08BEF92F07E
:1024C000C4C028F0C5C029F0C6C02AF0C7C02BF090
:1024D000C8C02CF0C9C02DF0CAC02EF0CBC02FF060
:1024E0000AEC98F0D8B077EF92F079EF92F08BEF9A
:1024F00092F0C0C028F0C1C029F0C2C02AF0C3C009
:102500002BF0BCC02CF0BDC02DF0BEC02EF0BFC063
:102510002FF00AEC98F0080E0001FF19D8A493EFF1
:1025200092F095EF92F0B7EF92F05C0E286E8F0E5E
:10253000296E520E2A6E400E2B6EB0C02CF0B1C028
:102540002DF0B2C02EF0B3C02FF00AEC98F0D8B046
:10255000ACEF92F0AEEF92F0B7EF92F0D10E546E76
:10256000FD0E556ECEEC9EF0010E0001D96F000EEF
:1025700027EC9FF01200096E0950D8B4C2EF92F018
:10258000C4EF92F0E6EF92F004BECBEF92F0C9EF09
:1025900092F0E6EF92F001C005F002C006F003C031
:1025A00007F004C008F0051E061E071E081E052AB7
:1025B000000E06220722082205C00BF006C00CF010
:1025C00007C00DF008C00EF0EEEF92F001C00BF066
:1025D00002C00CF003C00DF004C00EF00150021058
:1025E00003100410D8A4F7EF92F0F9EF92F003EF84
:1025F00093F0000E016E000E026E000E036E000ED0
:10260000046E94EF93F0960E0A6E0DEF93F00A2A83
:10261000D8900E320D320C320B32000E0B14056EB8
:10262000000E0C14066E000E0D14076EFE0E0E1436
:10263000086E0550061007100810D8A422EF93F07A
:1026400024EF93F007EF93F032EF93F00A2A010E94
:102650000B26000E0C220D220E22D8900E320D32C7
:102660000C320B32000E0B14056E000E0C14066EAD
:10267000000E0D14076EFF0E0E14086E05500610A6
:1026800007100810D8A447EF93F049EF93F026EF16
:1026900093F051EF93F00A06D8900B360C360D36B6
:1026A0000E360DBE56EF93F058EF93F060EF93F0B7
:1026B000020E0A605EEF93F060EF93F04BEF93F041
:1026C0000AB065EF93F067EF93F068EF93F00D9E1B
:1026D000D8900A320AC005F0066A076A086A05C07F
:1026E00008F0076A066A056A05500B1206500C12BC
:1026F00007500D1208500E120950D8B482EF93F013
:1027000084EF93F08CEF93F004BE8BEF93F089EF9E
:1027100093F08CEF93F00E8E0BC001F00CC002F022
:102720000DC003F00EC004F0120043EF94F07E8859
:102730007E947E9E310E546EFF0E556ECEEC9EF052
:10274000020E0001FF6F060E0101596F6DEF94F04C
:102750007E947E887E8C7E9E7F94000E546EFF0E4B
:10276000556ECEEC9EF0030E0001FF6F050E0101C9
:10277000596F6DEF94F07E947E887E8C7F867E9E6E
:102780007F947F90CD0E546EFE0E556ECEEC9EF073
:10279000040E0001FF6F040E0101596F6DEF94F0FC
:1027A0007E947E887E8C7F867F827E9E7F947F90C3
:1027B0007D92980E546EFE0E556ECEEC9EF0050E78
:1027C0000001FF6F030E0101596F6DEF94F07E94CD
:1027D0007E887E8C7F867F827D807E9E7F947F90A8
:1027E0007D927D9A610E546EFE0E556ECEEC9EF07B
:1027F000060E0001FF6F020E0101596F6DEF94F09C
:102800007E947E887E8C7F867F827D807D887E9E82
:102810007F947F907D927D9A7D9E280E546EFE0E51
:10282000556ECEEC9EF0070E0001FF6F010E010108
:10283000596F6DEF94F07E947E887E8C7F867F82C8
:102840007D807D887D8C7E9E7F947F907D927D9A19
:102850007D9E80960A0E546EFE0E556ECEEC9EF056
:10286000080E0001FF6F000E0101596F6DEF94F02B
:10287000DE0E546EFF0E556EFFC056F0576ACEEC5A
:102880009EF06DEF94F00001FF515C6E5D6A5D504B
:10289000000AD8B44EEF94F038EF94F05C50000A80
:1028A000D8B497EF93F0020AD8B4A8EF93F0010AD6
:1028B000D8B4BBEF93F0070AD8B4D0EF93F0010A75
:1028C000D8B4E7EF93F0030AD8B400EF94F0010A0C
:1028D000D8B41BEF94F038EF94F01200000E166E8F
:1028E000000E156E000E0F6E000E0E6E7AEF94F055
:1028F000084A092A010E146E08C0F6FF09C0F7FF46
:10290000000EF86E0800F550200AD8B48AEF94F053
:102910008CEF94F0ABEF94F0F70E0A6EFF0E0B6E97
:1029200008C0F6FF09C0F7FF000EF86E0800F5506A
:102930000C6E0D6A0A500C260B500D220D5009E149
:10294000050E0C5CD8A0A7EF94F0A9EF94F0ABEFC4
:1029500094F0000E146E14C010F0116A1050111093
:10296000D8A4B5EF94F0B7EF94F078EF94F0C1EFFE
:1029700094F0000E0F6E010E0E6E084A092AFAEF4F
:1029800094F008C0F6FF09C0F7FF000EF86E0800CB
:10299000F5500A6E0B6A0B50000AD8B4D2EF94F0CF
:1029A000FAEF94F00A502B0AD8B4BDEF94F0060A5F
:1029B000D8B4B9EF94F0FAEF94F015C001F016C056
:1029C00002F0000E046E0A0E036EE1EC9EF008C0E9
:1029D000F6FF09C0F7FF000EF86E0800F550015E23
:1029E000000E025A300E0124156E000E0220166EE3
:1029F000BDEF94F0D00E0A6EFF0E0B6E08C0F6FF0E
:102A000009C0F7FF000EF86E0800F5500C6E0D6A55
:102A10000A500C260B500D220D500AE10A0E0C5CD8
:102A2000D8A015EF95F018EF95F0010E19EF95F07D
:102A3000000E126E136A12501310D8A422EF95F0F4
:102A400024EF95F0DDEF94F00E500F10D8A42BEF8B
:102A500095F02DEF95F03BEF95F015C00AF016C0FC
:102A60000BF00A1E0B1E0A4A0B2A0AC008F00BC004
:102A700009F03FEF95F015C008F016C009F01200FC
:102A80007C927C94E7EF95F080867D9C7C84020E9E
:102A90005E6E060E0001D76F600E546EFF0E556E0F
:102AA000CEEC9EF010EF96F080867D8E7D9C7D981A
:102AB0007C84030E5E6E050E0001D76F490E546EC6
:102AC000FF0E556ECEEC9EF010EF96F080867D8E58
:102AD0007D8A7D9C7D987D907C84040E5E6E040EC4
:102AE0000001D76F190E546EFF0E556ECEEC9EF09E
:102AF00010EF96F080867D8E7D8A7D827D9C7D980C
:102B00007D907F927C84050E5E6E030E0001D76F70
:102B1000E70E546EFE0E556ECEEC9EF010EF96F062
:102B200080867D8E7D8A7D827F807D9C7D987D9054
:102B30007F927F967C84060E5E6E020E0001D76F38
:102B4000B30E546EFE0E556ECEEC9EF010EF96F066
:102B500080867D8E7D8A7D827F807F847D9C7D982E
:102B60007D907F927F967E9C7C84070E5E6E010E28
:102B70000001D76F7D0E546EFE0E556ECEEC9EF0AA
:102B800010EF96F080867D8E7D8A7D827F807F84A7
:102B90007E8E7D9C7D987D907F927F967E9C7E9898
:102BA0007E947C84080E5E6E000E0001D76F450E89
:102BB000546EFE0E556ECEEC9EF010EF96F0760E33
:102BC000546EFF0E556ECEEC9EF010EF96F05E50F8
:102BD0005C6E5D6A5D50000AD8B4F1EF95F0DFEFEE
:102BE00095F05C50010AD8B444EF95F0030AD8B4CC
:102BF00054EF95F0010AD8B466EF95F0070AD8B4FF
:102C00007AEF95F0010AD8B490EF95F0030AD8B4A2
:102C1000A8EF95F0010AD8B4C2EF95F0DFEF95F078
:102C20001200000E126E10BE1AEF96F018EF96F01A
:102C30002CEF96F0101E0F1E0E1E0D1E0C1E0B1EEE
:102C40000A1E096C000E0A220B220C220D220E22F3
:102C50000F221022010E126E08BE33EF96F031EFF4
:102C600096F045EF96F0081E071E061E051E041E70
:102C7000031E021E016C000E022203220422052202
:102C8000062207220822010E121A20EE13F0070E68
:102C9000DE6AE806FDE209500A100B100C100D1058
:102CA0000E100F101010D8B458EF96F05AEF96F09F
:102CB000ACEF96F0010E116E68EF96F0D8900936E1
:102CC0000A360B360C360D360E360F361036112AF4
:102CD00010AE6DEF96F06FEF96F05EEF96F0D89035
:102CE00013361436153616361736183619361A3680
:102CF0000950015C0A5002580B5003580C500458FC
:102D00000D5005580E5006580F50075810500858CF
:102D1000D8A08DEF96F08FEF96F0A0EF96F00950C7
:102D2000015E0A50025A0B50035A0C50045A0D50BF
:102D3000055A0E50065A0F50075A1050085A138061
:102D4000D89010320F320E320D320C320B320A3262
:102D50000932112E6FEF96F01250D8B4B2EF96F000
:102D6000B4EF96F0C4EF96F01A1E191E181E171E27
:102D7000161E151E141E136C000E14221522162288
:102D80001722182219221A2213C001F014C002F0CF
:102D900015C003F016C004F017C005F018C006F007
:102DA00019C007F01AC008F01200000E126E08BE1B
:102DB000DEEF96F0DCEF96F0F0EF96F0081E071EBF
:102DC000061E051E041E031E021E016C000E0222BA
:102DD000032204220522062207220822010E126E77
:102DE00010BEF7EF96F0F5EF96F007EF97F0101E94
:102DF0000F1E0E1E0D1E0C1E0B1E0A1E096C000E51
:102E00000A220B220C220D220E220F221022095020
:102E10000A100B100C100D100E100F101010D8B45B
:102E200014EF97F016EF97F05EEF97F0010E116E2A
:102E300024EF97F0D89009360A360B360C360D364B
:102E40000E360F361036112A10AE29EF97F02BEF01
:102E500097F01AEF97F00950015C0A5002580B5096
:102E600003580C5004580D5005580E5006580F507A
:102E7000075810500858D8A040EF97F042EF97F04D
:102E800052EF97F00950015E0A50025A0B50035A54
:102E90000C50045A0D50055A0E50065A0F50075A3E
:102EA0001050085AD89010320F320E320D320C32B8
:102EB0000B320A320932112E2BEF97F01250D8B490
:102EC00064EF97F066EF97F076EF97F0081E071E15
:102ED000061E051E041E031E021E016C000E0222A9
:102EE00003220422052206220722082201C001F043
:102EF00002C002F003C003F004C004F005C005F0F6
:102F000006C006F007C007F008C008F0120003343E
:102F100004340A6E0A50D8A490EF97F092EF97F01D
:102F20009CEF97F0000E016E000E026E000E036E15
:102F3000000E046E09EF98F001C005F002C006F023
:102F400003C007F004C008F0200EACEF97F0D89053
:102F50000832073206320532E82EA7EF97F0055007
:102F6000096E038EFF0E0116FF0E0216FF0E0316EA
:102F7000000E0416960E0A5E0ABEC3EF97F0C1EF6C
:102F800097F0D9EF97F00A50800A970FD8B0CBEF9F
:102F900097F0CDEF97F0CFEF97F092EF97F0D890B2
:102FA00004320332023201320A3ECFEF97F0F1EFE2
:102FB00097F01F0E0A64DFEF97F0E1EF97F0E9EF6B
:102FC00097F092EF97F0D890013602360336043628
:102FD0000A060A50D8A4EFEF97F0F1EF97F0E3EF6D
:102FE00097F00950D8B4F7EF97F0F9EF97F001EFA9
:102FF00098F0041E031E021E016C000E0222032222
:10300000042201C001F002C002F003C003F004C0BA
:1030100004F01200000E2814306E000E2914316ED8
:10302000800E2A14326E7F0E2B14336E3050311006
:1030300032103310D8A41FEF98F021EF98F029EF49
:1030400098F0000E286E000E296E000E2A6E000EFB
:103050002B6E000E2C14306E000E2D14316E800E6F
:103060002E14326E7F0E2F14336E3050311032100A
:103070003310D8A43EEF98F040EF98F048EF98F066
:10308000000E2C6E000E2D6E000E2E6E000E2F6E9A
:103090002BAE4DEF98F04FEF98F058EF98F0286C6A
:1030A000291ED8B0292A2A1ED8B02A2A800E2B56CB
:1030B0002FAE5DEF98F05FEF98F068EF98F02C6C12
:1030C0002D1ED8B02D2A2E1ED8B02E2A800E2F5697
:1030D000000E281A000E291A000E2A1A800E2B1A2A
:1030E000000E2C1A000E2D1A000E2E1A800E2F1A0A
:1030F0002C50285C2D5029582E502A582F502B58D0
:10310000D8B085EF98F087EF98F08AEF98F0D890D4
:103110008BEF98F0D8801200B8C00BF0B9C00CF05B
:10312000BAC00DF0BBC00EF001C00BF002C00CF035
:1031300003C00DF004C00EF00BC005F00CC006F08B
:103140000DC007F00EC008F0180EACEF98F0D89044
:103150000832073206320532E82EA7EF98F0055004
:10316000096E0A6A09500A10D8A4B9EF98F0BBEFAB
:1031700098F0DBEF98F0D8900B34056E0C34066EA7
:103180000D34076E0E34086E055006100710081037
:10319000D8A4CDEF98F0CFEF98F0D5EF98F0000ECF
:1031A000026E020E016E0AEF99F0000E026E030E1F
:1031B000016E0AEF99F009280A10D8A4E2EF98F0FE
:1031C000E4EF98F006EF99F00BC005F00CC006F0A4
:1031D0000DC007F00EC008F0090ED890053606366F
:1031E00007360836E82EEDEF98F005500610071068
:1031F0000810D8B4FEEF98F001EF99F0010E02EF3D
:1032000099F0000E016E026A0AEF99F0000E026E4C
:10321000040E016E120001C008F002C009F003C0E4
:103220000AF004C00BF00506D8A00606052806E142
:103230000628D8A41EEF99F020EF99F02DEF99F011
:10324000000E026E000E016E7BEF99F0084A092A0B
:103250000A4A0B2A0506D8A0060608C0D9FF09C0ED
:10326000DAFFDF50D8B437EF99F039EF99F068EF13
:1032700099F00AC0F6FF0BC0F7FF000EF86E0800C9
:10328000F5500009D8B447EF99F049EF99F068EF8D
:1032900099F005500610D8B450EF99F052EF99F01C
:1032A00068EF99F008C0D9FF09C0DAFFDF50076E58
:1032B0000AC0F6FF0BC0F7FF000EF86E0800F550CD
:1032C0000718D8B466EF99F068EF99F026EF99F0F7
:1032D00008C0D9FF09C0DAFFDF50076E0AC0F6FF49
:1032E0000BC0F7FF000EF86E0800F550075C016E8A
:1032F000026AD8A0020612000001D5A182EF99F05F
:1033000084EF99F08EEF99F015C00CF016C00DF017
:1033100013C00EF014C00FF0D6EC9DF018BE93EF62
:1033200099F095EF99F09BEF99F017C01CF018C039
:103330001DF09FEF99F0000E1D6E000E1C6E000E2A
:103340001B6E000E1A6EB1EF99F0000E046E200E87
:10335000036E13C005F014C006F04FEC9BF01A4A40
:103360001B2A1C501A5C1B50800A196E1D50800AC3
:103370001958D8A0BEEF99F0C0EF99F0A5EF99F0D9
:103380000001D5B1C6EF99F0C8EF99F0D2EF99F0EE
:1033900015C00CF016C00DF013C00EF014C00FF0E5
:1033A000D6EC9DF015C001F016C002F06CEC9EF05A
:1033B0001C500124136E1D500220146E1200000ECA
:1033C000066E04BEE8EF99F0E6EF99F0EEEF99F0A3
:1033D000036C041ED8B0042A010E066E02BEF5EF7F
:1033E00099F0F3EF99F0FBEF99F0016C021ED8B061
:1033F000022A010E061A000E086E000E076E035018
:103400000410D8B406EF9AF008EF9AF030EF9AF073
:10341000010E056E10EF9AF0D89003360436052A97
:1034200004AE15EF9AF017EF9AF00CEF9AF0D890DF
:10343000073608360350015C04500258D8A023EF29
:103440009AF025EF9AF02AEF9AF00350015E0450AB
:10345000025A0780D89004320332052E17EF9AF0F3
:103460000650D8B436EF9AF038EF9AF03CEF9AF065
:10347000076C081ED8B0082A07C001F008C002F087
:103480001200000E7D6E000E7C6E000E796E000E36
:103490007E6E000E7A6E000E7F6E000E7B6E000E4A
:1034A000806E080E856E010E866EF50E816E500ED2
:1034B000876EFE0E826E010E886E8368B90E846E72
:1034C000F90E0E01A76FBE0E9A6F000EAF6F700E51
:1034D000BC6F010EB46FA50E926F000EA66F000EAA
:1034E000B36F000EAE6F000E996F000EBB6F000E33
:1034F000916F000EA16F000EC06F000EAD6F000E39
:10350000B26F000E906F000EBA6F000E986F000E33
:10351000BF6F000EA06F000EA56F8F6997699F693E
:10352000A469AC69B169B969BE698E6996699E6919
:10353000A369AB69B069B869BD69140E746F230ED5
:10354000176F1200000E066E02BEABEF9AF0A9EFE5
:103550009AF0B1EF9AF0016C021ED8B0022A010E67
:10356000066E04BEB8EF9AF0B6EF9AF0BCEF9AF090
:10357000036C041ED8B0042A03500410D8B4C3EF5F
:103580009AF0C5EF9AF0E9EF9AF0010E056ECDEFD3
:103590009AF0D89003360436052A04AED2EF9AF09A
:1035A000D4EF9AF0C9EF9AF00350015C045002582E
:1035B000D8A0DDEF9AF0DFEF9AF0E3EF9AF0035036
:1035C000015E0450025AD89004320332052ED4EF23
:1035D0009AF00650D8B4EFEF9AF0F1EF9AF0F5EFC9
:1035E0009AF0016C021ED8B0022A01C001F002C09C
:1035F00002F01200000E0114096E000E02140A6E91
:10360000800E03140B6E7F0E04140C6E09500A100A
:103610000B100C10D8A40FEF9BF011EF9BF019EFDB
:103620009BF0000E016E000E026E000E036E000E87
:10363000046E000E0514096E000E06140A6E800E4C
:1036400007140B6E7F0E08140C6E09500A100B1035
:103650000C10D8A42EEF9BF030EF9BF038EF9BF0CE
:10366000000E056E000E066E000E076E000E086E50
:10367000055001180FE1065002180CE1075003181D
:1036800009E108500418D8B448EF9BF04AEF9BF0CA
:103690004DEF9BF0D8904EEF9BF0D8801200055074
:1036A0000610D8B456EF9BF058EF9BF061EF9BF0FB
:1036B00005500610D8A45FEF9BF061EF9BF066EF1A
:1036C0009BF003508FEC9FF099EF9BF020EE04F0FD
:1036D0000550D9260650DA22DE50DE10D8B473EF3A
:1036E0009BF075EF9BF090EF9BF020EE04F00550FF
:1036F000D9260650DA2210EE02F00550E1260650D7
:10370000E222DE50E65CE650800A0B6EDE50800A54
:103710000B58D8B08EEF9BF090EF9BF099EF9BF099
:1037200020EE02F00550D9260650DA22DE2A000EDD
:10373000DD221200B9EC9EF032C0ACF033C0ADF027
:1037400034C0AEF035C0AFF07B0E286E140E296E7B
:103750003E0E2A6E400E2B6EACC02CF0ADC02DF08C
:10376000AEC02EF0AFC02FF00AEC98F0D8A0BBEF9F
:103770009BF0BDEF9BF0D0EF9BF0D30E546EFF0E8D
:10378000556EACC056F0ADC057F0AEC058F0AFC0EB
:1037900059F0CEEC9EF040EC95F0000E0001D96F90
:1037A0001200000E316E000E306E1B0EA2EC9EF069
:1037B00001C030F002C031F030C001F031C002F081
:1037C000036A046A000EBBEC92F001C00FF002C065
:1037D00010F003C011F004C012F00D0E136E680E4D
:1037E000146E530E156E3B0E166E7CEC8BF00FC0F4
:1037F0002CF010C02DF011C02EF012C02FF02CC0F4
:1038000028F02DC029F02EC02AF02FC02BF0120076
:1038100036EC9FF0F28EF28C000E0001D96F000E94
:10382000DB6F87EC9EF00001DB05D8A41AEF9CF05B
:103830001CEF9CF02BEF9CF0D951D8A422EF9CF008
:1038400024EF9CF02BEF9CF0D9EC91F0000E0001DE
:10385000DB6F13EF9CF0D905D8A431EF9CF033EF68
:103860009CF013EF9CF06BEC9FF09AEC9BF013EF45
:103870009CF01FEF00F04EC052F04FC053F0000E0E
:103880000001D06F000ECF6F59EF9CF04CC042F09A
:103890004DC043F0520E446E000E456E50C046F0CF
:1038A00051C047F053EC86F042500001CF274350FF
:1038B000D02352C0F6FF53C0F7FF000EF86E080089
:1038C000F5500009D8A467EF9CF069EF9CF046EF33
:1038D0009CF0CFC04CF0D0C04DF01200BF0E096E6E
:1038E000FF0E0A6E07C00BF008C00CF009500B2643
:1038F0000A500C220C500AE11A0E0B5CD8A083EF80
:103900009CF086EF9CF0010E87EF9CF0000E0D6E90
:103910000E6A0D500E10D8B490EF9CF092EF9CF010
:1039200099EF9CF0200E0710076E0850086E9DEF6F
:103930009CF007C007F008C008F0120003C007F0B1
:1039400004C008F001C009F002C00AF00750056E7B
:103950000850066E074A082A05C0F6FF06C0F7FFA2
:10396000000EF86E09C0D9FF0AC0DAFF094A0A2A18
:103970000D0EF76403D00800F55005D0F6CFE9FF2F
:10398000F7CFEAFFEF50DF6EDF50D8A4CAEF9CF00C
:10399000CCEF9CF0A6EF9CF01200010E076E200EFB
:1039A00001180210D8B4D7EF9CF0D9EF9CF0F2EFD9
:1039B0009CF0F70E036EFF0E046E01C005F002C00E
:1039C00006F00350052604500622065009E1050EB4
:1039D000055CD8A0EEEF9CF0F0EF9CF0F2EF9CF0CD
:1039E000000E076E07C001F0026A1200000E6A6E38
:1039F000000E6B6E000E6C6E000E6D6E000E686E2B
:103A0000000E696E000E666E000E0F015F6F000EF5
:103A10005D6F000E5E6F000E596F000E5A6F000E44
:103A20005B6F000E656E000E586F000E566F000E35
:103A3000576F840E606E000E5C6F1200080E0E0150
:103A4000E26F900EE06F240EE16F190EDE6F000E34
:103A5000DF6F000E016E000E026E000E036E7BEC37
:103A60009FF0000E016E000E026E000E036E74ECED
:103A70009FF0000E016E000E026E000E036E82ECCF
:103A80009FF0000E0001DA6F12007C847C9280941B
:103A9000D1EC9BF028C036F029C037F02AC038F0AE
:103AA0002BC039F0C4C0C8F0C5C0C9F0C6C0CAF048
:103AB000C7C0CBF036C0C4F037C0C5F038C0C6F0C0
:103AC00039C0C7F036C032F037C033F038C034F0F8
:103AD00039C035F012007C947C928084D1EC9BF04C
:103AE00028C036F029C037F02AC038F02BC039F092
:103AF000BCC0C0F0BDC0C1F0BEC0C2F0BFC0C3F00A
:103B000036C0BCF037C0BDF038C0BEF039C0BFF021
:103B100036C032F037C033F038C034F039C035F039
:103B20001200000E2C1A000E2D1A000E2E1A800EF6
:103B30002F1A28C001F029C002F02AC003F02BC0C0
:103B400004F02CC005F02DC006F02EC007F02FC0E9
:103B500008F01CEC89F001C028F002C029F003C075
:103B60002AF004C02BF01200E80EF66E3D0EF76E40
:103B7000010EF86E00EEDCF010EE23F00900F5CF38
:103B8000EEFFE550E150FAE101EE00F0500EEE6A72
:103B9000E806FDE100EEB4F0280EEE6AE806FDE16D
:103BA0005E6A5F905F92000108EF9CF0000E126E5B
:103BB000000E116EE7EF9DF010C003F0046A0EC016
:103BC00005F00FC006F04FEC9BF0114A122A11507D
:103BD0000C24D96E12500D20DA6EDF50106E10508A
:103BE000D8A4F5EF9DF0F7EF9DF0DCEF9DF012000B
:103BF00014BE05EF9EF0145006E11304D8B003EF95
:103C00009EF005EF9EF013EF9EF013C015F014C068
:103C100016F0151E161E154A162A15C013F016C0EA
:103C200014F017EF9EF013C013F014C014F012003C
:103C3000BF0E036EFF0E046E01C005F002C006F059
:103C4000035005260450062206500AE11A0E055CB0
:103C5000D8A02DEF9EF030EF9EF0010E31EF9EF0D8
:103C6000000E016E026A12000150021003100410CF
:103C7000D8B43DEF9EF03FEF9EF047EF9EF0000E70
:103C8000011A000E021A000E031A800E041A01C057
:103C900001F002C002F003C003F004C004F01200FF
:103CA000D00E036EFF0E046E01C005F002C006F0D8
:103CB000035005260450062206500AE10A0E055C50
:103CC000D8A065EF9EF068EF9EF0010E69EF9EF0C0
:103CD000000E016E026A120001C003F002C004F07F
:103CE00074EF9EF0014A022A01C0D9FF02C0DAFF38
:103CF000DF50D8A47EEF9EF080EF9EF072EF9EF032
:103D00000350015C016E04500258026E12007C8464
:103D10007C9280847D9C7D987D907F927F967E9C16
:103D20007E987E9406EC9FF080867D8E7D8A7D82D3
:103D30007F807F847E8E080E0101596F000E000186
:103D4000FF6F1200056E05C05FFF608E609C608093
:103D500060B0ADEF9EF0AFEF9EF0A8EF9EF0645024
:103D6000046E036A63500324016E000E0420026E89
:103D700012007C927C94D1EC9BF028C036F029C0D4
:103D800037F02AC038F02BC039F036C032F037C0D7
:103D900033F038C034F039C035F01200560E5A6E88
:103DA000000E5B6E000E4C6E000E4D6E54C04EF059
:103DB00055C04FF05A0E506E000E516E3BEC9CF009
:103DC000120001500302F3CF05F0F4CF06F00150CA
:103DD0000402F350062602500302F350062605C0E3
:103DE00001F006C002F012000031310A32300A310F
:103DF000390A31380A31370A31360A31320A313458
:0B3E00002C322E300A31330A300A0049
:103E0C0080967D9E7D9A7D927F907F947E9E7E9AF9
:103E1C007E967E927F9E7996799280927A907C9C07
:103E2C001200040EB36E000EB26E000EB46EF10EE4
:103E3C00B06E000EAF6E0E01389B2E8BE90EB16E7C
:103E4C001200016E0104D8A42EEF9FF030EF9FF00A
:103E5C0033EF9FF0809435EF9FF07C8480841200C8
:103E6C0094EC9FF045EC9FF041EC9AF05FEC9FF0E6
:103E7C00F6EC9CF017EC9FF01EEC9DF01200000E7F
:103E8C000E014C6F000E4D6F000E4E6F000E4F6FFB
:103E9C00000E506F000E516F1200016E0E0137A90B
:103EAC005AEF9FF05CEF9FF054EF9FF001C0DDFEE6
:103EBC001200620E0E01436F000E456F000E476F2D
:103ECC00020E496F000E486F12007C9480947C8225
:103EDC00070E0001D76F010E5E6E120001C053F188
:103EEC0002C054F103C055F1120001C056F102C0DA
:103EFC0057F103C058F1120001C050F102C051F14A
:103F0C0003C052F112000E01389B010E0001DB6F51
:103F1C001200026E025053EC9FF01200F29A120043
:020000040020DA
:10000000FF0FFF0FFF0FFF0FFF0FFF0FFF0FFF0F80
:020000040030CA
:0C000000ECFFFFFF9FFFFFFFFFFFFFFF73
:00000001FF
