:040000001FEF00F0FE
:100008005F82F2AC0AEF00F00CEF00F01DEF00F099
:100018000E012EAB12EF00F014EF00F01DEF00F010
:1000280038AB19EF00F01BEF00F01DEF00F05AECB1
:0A00380025F05F92110005EF22F0A1
:100E000000252E326600494E46004E414E00696E66
:100E100066006E616E006C660000000E00017B6F64
:100E2000000E7A6F36C08CF037C08DF038C08EF06F
:100E300039C08FF08FBF21EF07F01FEF07F037EFBA
:100E400007F0000E7B6F010E7A6F8CC001F08DC031
:100E500002F08EC003F08FC004F0E3EC23F001C079
:100E60008CF002C08DF003C08EF004C08FF0000E35
:100E70000001936F000E926FEFC07EF0F0C07FF024
:100E80007A517B11D8A447EF07F049EF07F050EFF4
:100E900007F0F3A54EEF07F050EF07F06AEF07F009
:100EA0007A517B11D8A457EF07F059EF07F05FEFA5
:100EB00007F0000E616F2B0E606F63EF07F0000EFE
:100EC000616F2D0E606F60C00BF1924B932B7E070C
:100ED000D8A07F078CC001F08DC002F08EC003F057
:100EE0008FC004F0A3EC1DF001040210D8A47BEF26
:100EF00007F07DEF07F0D4EF07F0BF0E3B6EFF0E5B
:100F00003C6E3A503D6E3E6A3B503D263C503E2280
:100F10003E500AE11A0E3D5CD8A091EF07F094EF25
:100F200007F0010E95EF07F0000E0001626F636B92
:100F300062516311D8B49FEF07F0A1EF07F0AFEF54
:100F400007F00B0E9225016E010E9321026E060E24
:100F5000036E0E0E046E66EC22F0BBEF07F00B0E74
:100F60009225016E010E9321026E0E0E036E0E0E7F
:100F7000046E66EC22F00001FD0E7E27FF0E7F233B
:100F800034C013F035C014F00B0E156E010E166E42
:100F90007EC017F07FC018F0F8EC1EF013C034F0DC
:100FA00014C035F038EF0DF08CC001F08DC002F0A8
:100FB0008EC003F08FC004F0A3EC1DF001500210AE
:100FC000D8A4E5EF07F0E7EF07F027EF08F0BF0E32
:100FD0003B6EFF0E3C6E3A503D6E3E6A3B503D26E6
:100FE0003C503E223E500AE11A0E3D5CD8A0FBEF79
:100FF00007F0FEEF07F0010EFFEF07F0000E000113
:10100000646F656B64516511D8B409EF08F00BEF9C
:1010100008F019EF08F00B0E9225016E010E9321D6
:10102000026E0A0E036E0E0E046E66EC22F0BBEF2B
:1010300007F00B0E9225016E010E9321026E120E27
:10104000036E0E0E046E66EC22F0BBEF07F0000E8E
:101050000001946F000E956F800E966F3F0E976F94
:10106000000E916F000E906F8CC001F08DC002F0E9
:101070008EC003F08FC004F0000E056E000E066EE9
:10108000000E076E000E086E76EC20F0D8B04BEF25
:1010900008F04DEF08F0D0EF08F06CEF08F094C0C6
:1010A0000FF095C010F096C011F097C012F0000E2E
:1010B000136E000E146E200E156E410E166EE1ECCE
:1010C00011F00FC094F010C095F011C096F012C04E
:1010D00097F00001904B912B8CC028F08DC029F027
:1010E0008EC02AF08FC02BF0000E136E000E146E0F
:1010F000200E156E410E166E94C00FF095C010F0C4
:1011000096C011F097C012F0E1EC11F00FC02CF076
:1011100010C02DF011C02EF012C02FF021EC1DF0E8
:10112000D8B095EF08F097EF08F04FEF08F0B7EF61
:1011300008F094C001F095C002F096C003F097C08B
:1011400004F0000E056E000E066E200E076E410EB6
:10115000086EF6EC13F001C094F002C095F003C0E5
:1011600096F004C097F000019007D8A091078CC0BA
:1011700028F08DC029F08EC02AF08FC02BF094C0CB
:101180002CF095C02DF096C02EF097C02FF021ECDA
:101190001DF0D8A0CEEF08F0D0EF08F099EF08F0DE
:1011A0003AC007F0086A36EC22F007500001816F60
:1011B00081C080F0670E8119D8A4E1EF08F0E3EF59
:1011C00008F009EF09F0F151F211D8A4EAEF08F0A4
:1011D000ECEF08F0F0EF08F0000EF26F010EF16F87
:1011E000F2BFFDEF08F0F25106E1F105D8B0FBEFD8
:1011F00008F0FDEF08F003EF09F0000E7D6F060E1A
:101200007C6F12EF09F0F1C07CF0F2C07DF012EFBC
:1012100009F0F2BF0EEF09F010EF09F0FDEF08F052
:1012200003EF09F0670E8119D8A419EF09F01BEF3D
:1012300009F04AEF09F091AF29EF09F0FC0E905D3B
:10124000FF0E9159D8A027EF09F029EF09F048EFD8
:1012500009F0FF0E3B6EFF0E3C6E7CC03DF07DC082
:101260003EF03B503D263C503E2290513D5C3E506E
:10127000800A3F6E9151800A3F58D8A042EF09F092
:1012800044EF09F048EF09F0660E806F4AEF09F06D
:10129000650E806F7CC072F07DC073F0670E81199F
:1012A000D8A455EF09F057EF09F067EF09F0660E83
:1012B0008019D8A45EEF09F060EF09F069EF09F03A
:1012C00091BF67EF09F065EF09F069EF09F0724B24
:1012D000732B660E8019D8A470EF09F072EF09F035
:1012E00092EF09F091BF79EF09F077EF09F085EF00
:1012F00009F0000E946F000E956F800E966F3F0EF2
:10130000976F000E916F000E906F670E8119D8B421
:101310008CEF09F08EEF09F092EF09F090517227EF
:1013200091517323000E8B6F000E8A6F8CC082F078
:101330008DC083F08EC084F08FC085F094C074F0AF
:1013400095C075F096C076F097C077F023EF0AF05D
:1013500082C001F083C002F084C003F085C004F0B5
:1013600094C005F095C006F096C007F097C008F04D
:10137000F6EC13F001C01AF002C01BF003C01CF021
:1013800004C01DF084EC17F01AC086F01BC087F073
:101390001CC088F01DC089F086C001F087C002F033
:1013A00088C003F089C004F09EEC1CF001C078F006
:1013B00002C079F082C028F083C029F084C02AF0EE
:1013C00085C02BF094C013F095C014F096C015F0B2
:1013D00097C016F086C00FF087C010F088C011F0DB
:1013E00089C012F0E1EC11F00FC02CF010C02DF00C
:1013F00011C02EF012C02FF082EC23F028C082F032
:1014000029C083F02AC084F02BC085F094C001F07D
:1014100095C002F096C003F097C004F0000E056E70
:10142000000E066E200E076E410E086EF6EC13F0ED
:1014300001C094F002C095F003C096F004C097F08C
:1014400000018A4B8B2B72518A5D8B51800A3B6E57
:101450007351800A3B58D8A030EF0AF032EF0AF0FF
:10146000A8EF09F094C00FF095C010F096C011F0ED
:1014700097C012F0000E136E000E146EA00E156EC3
:10148000400E166EE1EC11F00FC086F010C087F030
:1014900011C088F012C089F082C028F083C029F002
:1014A00084C02AF085C02BF086C02CF087C02DF0B8
:1014B00088C02EF089C02FF021EC1DF0D8B063EF6A
:1014C0000AF065EF0AF070EF0AF0000E0001866F77
:1014D000000E876F000E886F000E896F99EF0AF07B
:1014E00082C001F083C002F084C003F085C004F024
:1014F00086C005F087C006F088C007F089C008F0F4
:1015000076EC20F0D8A087EF0AF089EF0AF099EF87
:101510000AF0000178B18FEF0AF091EF0AF099EF2D
:101520000AF0000E866F000E876F000E886F000EA7
:10153000896F8CC001F08DC002F08EC003F08FC0A7
:1015400004F086C005F087C006F088C007F089C0A7
:1015500008F039EC0DF001C082F002C083F003C046
:1015600084F004C085F082C028F083C029F084C0D4
:101570002AF085C02BF0000E136E000E146E200EA4
:10158000156E410E166E74C00FF075C010F076C067
:1015900011F077C012F0E1EC11F00FC02CF010C088
:1015A0002DF011C02EF012C02FF021EC1DF0D8A0AC
:1015B000DCEF0AF0DEEF0AF007EF0BF00001904BD2
:1015C000912B74C00FF075C010F076C011F077C089
:1015D00012F0000E136E000E146E200E156E410EEA
:1015E000166EE1EC11F00FC074F010C075F011C070
:1015F00076F012C077F0660E00018019D8A403EFD0
:101600000BF005EF0BF007EF0BF0724B732B74C070
:1016100094F075C095F076C096F077C097F0650E9F
:1016200000018019D8B417EF0BF019EF0BF01FEF82
:101630000BF090C070F091C071F023EF0BF0000E32
:10164000716F000E706F000E6F6F000E6E6F000EE8
:101650006D6F000E6C6F000E8B6F000E8A6F1EEFA9
:101660000CF082C001F083C002F084C003F085C09A
:1016700004F094C005F095C006F096C007F097C03E
:1016800008F0F6EC13F001C01AF002C01BF003C022
:101690001CF004C01DF084EC17F01AC086F01BC0CB
:1016A00087F01CC088F01DC089F086C001F087C09B
:1016B00002F088C003F089C004F09EEC1CF001C069
:1016C00078F002C079F00001F3B969EF0BF06BEF2D
:1016D0000BF088EF0BF078517911D8A472EF0BF072
:1016E00074EF0BF088EF0BF0670E8119D8A47BEF35
:1016F0000BF07DEF0BF088EF0BF071BF84EF0BF078
:1017000082EF0BF088EF0BF06C4B6D2BD2EF0BF0F0
:101710006E516F11D8A48FEF0BF091EF0BF0BBEF70
:101720000BF071BF98EF0BF096EF0BF0BBEF0BF0E7
:101730000B0E9225D96E010E9321DA6E2E0EDF6EFE
:10174000924B932B7E07D8A07F07000E6F6F010E80
:101750006E6FBBEF0BF00B0E9225D96E010E93212D
:10176000DA6E300EDF6E924B932B7E07D8A07F0788
:101770006C07D8A06D076C516D11D8A4C2EF0BF0A7
:10178000C4EF0BF0ABEF0BF00B0E9225D96E010EF0
:101790009321DA6E7851300FDF6E924B932B7E07D8
:1017A000D8A07F0782C028F083C029F084C02AF027
:1017B00085C02BF094C013F095C014F096C015F0BE
:1017C00097C016F086C00FF087C010F088C011F0E7
:1017D00089C012F0E1EC11F00FC02CF010C02DF018
:1017E00011C02EF012C02FF082EC23F028C082F03E
:1017F00029C083F02AC084F02BC085F094C001F08A
:1018000095C002F096C003F097C004F0000E056E7C
:10181000000E066E200E076E410E086EF6EC13F0F9
:1018200001C094F002C095F003C096F004C097F098
:1018300000017007D8A071078A4B8B2B72518A5D0B
:101840008B51800A3B6E7351800A3B58D8B02BEF06
:101850000CF02DEF0CF03BEF0CF093BF39EF0CF0D8
:10186000935109E14B0E925DD8A039EF0CF03BEF9C
:101870000CF031EF0BF06E516F11D8A442EF0CF069
:1018800044EF0CF055EF0CF0F3A949EF0CF04BEFDF
:101890000CF055EF0CF00B0E9225D96E010E932132
:1018A000DA6E2E0EDF6E924B932B0B0E9225D96EB5
:1018B000010E9321DA6E000EDF6E650E8019D8A43A
:1018C00064EF0CF066EF0CF0C0EF07F0000E8B6FCA
:1018D0004F0E8A6F0B0E8A25D96E010E8B21DA6EA0
:1018E000000EDF6E000E7B6F000E7A6F91BF7DEFF2
:1018F0000CF07BEF0CF085EF0CF0000E7B6F010E0F
:101900007A6F906D911FD8B0912B000E7D6F020EF3
:101910007C6FB6EF0CF08A07D8A08B070B0E8A25D8
:10192000D96E010E8B21DA6E90C001F091C002F0E9
:10193000000E046E0A0E036E1EEC20F00150300FF4
:10194000DF6E90C001F091C002F0000E046E0A0E2E
:10195000036E5BEC1FF001C090F002C091F000013B
:101960007C07D8A07D077E07D8A07F0790519111F2
:10197000D8A4BDEF0CF0BFEF0CF08BEF0CF07DBFE7
:10198000CCEF0CF07D5106E17C05D8B0CAEF0CF02D
:10199000CCEF0CF08BEF0CF08A07D8A08B077A51B4
:1019A0007B11D8A4D6EF0CF0D8EF0CF0DEEF0CF0E2
:1019B000000E676F2B0E666FE2EF0CF0000E676F84
:1019C0002D0E666F0B0E8A25D96E010E8B21DA6EF5
:1019D00066C0DFFF7E07D8A07F078A07D8A08B07E5
:1019E000BF0E3B6EFF0E3C6E3A503D6E3E6A3B5062
:1019F0003D263C503E223E500AE11A0E3D5CD8A0E6
:101A000004EF0DF007EF0DF0010E08EF0DF0000EE2
:101A10006A6F6B6B6A516B11D8A411EF0DF013EF65
:101A20000DF019EF0DF0000E696F650E686F1DEF78
:101A30000DF0000E696F450E686F0B0E8A25D96E8A
:101A4000010E8B21DA6E68C0DFFF7E07D8A07F070A
:101A50000B0E9225016E010E9321026E0B0E8A254C
:101A6000036E010E8B21046E66EC22F0C0EF07F0CE
:101A700012000450800B0D6E045004240F6E03AE50
:101A800044EF0DF046EF0DF047EF0DF00F800F50D3
:101A9000D8B44DEF0DF04FEF0DF064EF0DF00F28BF
:101AA000D8A455EF0DF057EF0DF05FEF0DF0000EDD
:101AB000016E000E026E000E036E000E046E038EA9
:101AC000000E046E6CEF0DF0000E016E000E026E43
:101AD000000E036E000E046E0850800B0E6E0D504B
:101AE0000E18D8B476EF0DF078EF0DF079EF0DF019
:101AF0000D8C085008240E6E07AE81EF0DF083EFB9
:101B00000DF084EF0DF00E800E50D8B48AEF0DF07A
:101B10008CEF0DF0A1EF0DF00E28D8A492EF0DF090
:101B200094EF0DF09CEF0DF0000E056E000E066EAA
:101B3000000E076E000E086E078E000E086EA9EFED
:101B40000DF0000E056E000E066E000E076E000E04
:101B5000086E0F500E5CD8B0B0EF0DF0B2EF0DF084
:101B6000D9EF0DF00DACB7EF0DF0B9EF0DF0BBEF05
:101B70000DF0800E0D1A0FC010F00EC00FF010C047
:101B80000EF001C010F005C001F010C005F002C059
:101B900010F006C002F010C006F003C010F007C03D
:101BA00003F010C007F004C010F008C004F010C02B
:101BB00008F0000E106E0F500EC009F00A6A095EA0
:101BC000000E0A5A0ABEEEEF0DF00A5009E11A0E95
:101BD000095CD8A0EEEF0DF0F0EF0DF027EF0EF05E
:101BE0000150021003100410D8A4F9EF0DF0FCEF1F
:101BF0000DF0010EFDEF0DF0000E106E000E016EE7
:101C0000000E026E000E036E000E046E0EC00FF08A
:101C100030EF0EF010A00FEF0EF011EF0EF017EFF7
:101C20000EF0D89010300109106E19EF0EF0D89018
:101C3000103201A01EEF0EF020EF0EF021EF0EF09B
:101C4000108E043404320332023201320F2A0E5055
:101C50000F5CD8A02EEF0EF030EF0EF00AEF0EF072
:101C60000DBC35EF0EF037EF0EF077EF0EF00F50A2
:101C7000D8A43DEF0EF03FEF0EF049EF0EF0000E4E
:101C8000016E000E026E000E036E000E046E98EFE1
:101C90000FF005500126065002220750032208507B
:101CA000042204A056EF0EF058EF0EF004EF0FF0F0
:101CB00010A05DEF0EF05FEF0EF065EF0EF0D89024
:101CC00010300109106E67EF0EF0D890103201A0AD
:101CD0006CEF0EF06EEF0EF06FEF0EF0108E04341E
:101CE00004320332023201320F2A04EF0FF00550A2
:101CF000015C06500258075003580450800A096ED0
:101D00000850800A0958D8B088EF0EF08AEF0EF01C
:101D1000B5EF0EF00150055C096E025006580A6ED0
:101D2000035007580B6E045008580C6EFF0E092420
:101D3000016EFF0E0A20026EFF0E0B20036EFF0ED7
:101D40000C20046E800E0D1A106C1050D8A4ABEF4E
:101D50000EF0ADEF0EF0BDEF0EF0010E0126000EFD
:101D6000022203220422BDEF0EF00550015E065050
:101D7000025A0750035A0850045A01500210031027
:101D80000410D8A4C6EF0EF0C8EF0EF0FDEF0EF071
:101D90001050D8A4CEEF0EF0D0EF0EF0FDEF0EF005
:101DA000000E016E000E026E000E036E000E046E39
:101DB00098EF0FF0D890013602360336043610AE95
:101DC000E4EF0EF0E6EF0EF0E7EF0EF0018010A06A
:101DD000ECEF0EF0EEEF0EF0F2EF0EF0D8801036D2
:101DE000F4EF0EF0D89010360F50D8B4FAEF0EF092
:101DF000FCEF0EF0FDEF0EF00F0603AE02EF0FF05A
:101E000004EF0FF0DAEF0EF0000E0E6E10AE0BEFD7
:101E10000FF00DEF0FF025EF0FF010C009F07F0E5F
:101E20000916D8B416EF0FF018EF0FF01CEF0FF0F3
:101E3000010E0E6E25EF0FF001A021EF0FF023EF42
:101E40000FF025EF0FF018EF0FF00E50D8B42BEF76
:101E50000FF02DEF0FF058EF0FF0010E0126000EDE
:101E600002220322042204A038EF0FF03AEF0FF011
:101E700058EF0FF001C009F002C00AF003C00BF0E8
:101E800004C00CF00C340C320B320A32093209C097
:101E900001F00AC002F00BC003F00CC004F00F28E0
:101EA000D8B455EF0FF057EF0FF058EF0FF00F2A9F
:101EB0000F28D8B45EEF0FF060EF0FF068EF0FF06F
:101EC0000F50D8A466EF0FF068EF0FF07AEF0FF025
:101ED000000E016E000E026E000E036E000E046E08
:101EE0000F50D8A476EF0FF078EF0FF07AEF0FF0E5
:101EF000000E0D6E0FA07FEF0FF081EF0FF084EF5B
:101F00000FF0038E85EF0FF0039ED8900F30046E14
:101F10000DAE8DEF0FF08FEF0FF090EF0FF0048EFE
:101F200001C001F002C002F003C003F004C004F0DD
:101F3000120042C0D9FF43C0DAFFDECFF6FFDDCF8B
:101F4000F7FF000EF86E0800F550250AD8A4ABEF95
:101F50000FF0ADEF0FF0C3EF11F042C0D9FF43C057
:101F6000DAFFDE2A000EDD22000E0001F06F000E07
:101F7000EF6FEFC0F3F0F0C0F4F0F169F26942C026
:101F8000D9FF43C0DAFFDECFF6FFDDCFF7FF000E4B
:101F9000F86E0800F5502E0AD8A4D1EF0FF0D3EF59
:101FA0000FF054EF10F0000EF26F000EF16F42C010
:101FB000D9FF43C0DAFFDE2A000EDD2242C0D9FF7E
:101FC00043C0DAFFDECFF6FFDDCFF7FF000EF86E7D
:101FD0000800F5502A0AD8A4F0EF0FF0F2EF0FF046
:101FE0000FEF10F042C0D9FF43C0DAFFDE2A000E27
:101FF000DD2244C0D9FF45C0DAFFDFCF46F0020E34
:10200000DE26DFCF47F0000EDD2246C0D9FF47C0F5
:10201000DAFFDECFF1F0DDCFF2F054EF10F042C086
:10202000D9FF43C0DAFFDECF08F0DDCF09F067EC5F
:1020300019F008C0F1F009C0F2F026EF10F042C02C
:10204000D9FF43C0DAFFDE2A000EDD22D00E466E35
:10205000FF0E476E42C0D9FF43C0DAFFDECFF6FF66
:10206000DDCFF7FF000EF86E0800F550486E496AA4
:10207000465048264750492249500AE10A0E485C1A
:10208000D8A045EF10F048EF10F0010E49EF10F026
:10209000000E4A6E4B6A4A504B10D8A452EF10F013
:1020A00054EF10F01FEF10F042C0D9FF43C0DAFF29
:1020B000DECFF6FFDDCFF7FF000EF86E0800F5501B
:1020C000076E086A36EC22F00750526E5250D8B4B0
:1020D0006CEF10F06EEF10F0AAEF10F042C0D9FFD5
:1020E00043C0DAFFDECF46F0DDCF47F0010E4626D3
:1020F000000E472246C0F6FF47C0F7FF000EF86EFD
:102100000800F550076E086A36EC22F00750536E4F
:102110005350D8B48EEF10F090EF10F0AAEF10F0FB
:1021200042C0D9FF43C0DAFFDECF46F0DDCF47F033
:10213000020E4626000E472246C0F6FF47C0F7FFB4
:10214000000EF86E0800F550076E086A36EC22F0B3
:102150000750546E660E5218D8A4B1EF10F0B3EFCA
:1021600010F0F5EF10F042C0D9FF43C0DAFFDECF28
:10217000F6FFDDCFF7FF000EF86E0800F5CF55F043
:1021800042C0D9FF43C0DAFFDE2A000EDD2244C080
:10219000D9FF45C0DAFFDFCF46F0040EDE26DFCFE1
:1021A00047F0000EDD2246C0D9FF47C0DAFFDECF80
:1021B0004EF0DECF4FF0DECF50F0DECF51F040C01A
:1021C00034F041C035F04EC036F04FC037F050C04B
:1021D00038F051C039F055C03AF00DEC07F034C07A
:1021E00040F035C041F0E0EF11F0520E016E000EEC
:1021F000026E160E036E0E0E046E000E066E020EBA
:10220000056E22EC1EF001500210D8A40AEF11F066
:102210000CEF11F08BEF11F042C0D9FF43C0DAFF91
:10222000DECF46F0DDCF47F0010E4626000E4722F6
:1022300046C0F6FF47C0F7FF000EF86E0800F5CF66
:1022400055F0BF0E466EFF0E476E42C0D9FF43C029
:10225000DAFFDECFF6FFDDCFF7FF000EF86E0800E5
:10226000F550486E496A4650482647504922495021
:102270000AE11A0E485CD8A040EF11F043EF11F0CC
:10228000010E44EF11F0000E4C6E4D6A4C504D1093
:10229000D8B44DEF11F04FEF11F069EF11F044C0D9
:1022A000D9FF45C0DAFFDFCF46F0040EDE26DFCFD0
:1022B00047F0000EDD2246C0D9FF47C0DAFFDECF6F
:1022C0004EF0DECF4FF0DECF50F0DECF51F081EF99
:1022D00011F044C0D9FF45C0DAFFDFCF46F0040E4D
:1022E000DE26DFCF47F0000EDD2246C0D9FF47C013
:1022F000DAFFDECF4EF0DECF4FF0DECF50F0DECF94
:1023000051F0020E42C0D9FF43C0DAFFDE26000EB4
:10231000DD22DFEF10F042C0D9FF43C0DAFFDECF8D
:10232000F6FFDDCFF7FF000EF86E0800F550250A26
:10233000D8A49DEF11F09FEF11F0B6EF11F042C05D
:10234000D9FF43C0DAFFDE2A000EDD22000E046E44
:10235000250E036E40C005F041C006F093EC1EF060
:10236000000E416E010E406EE0EF11F042C0D9FF49
:1023700043C0DAFFDE2A000EDD22000E416E000EA1
:10238000406EE0EF11F042C0D9FF43C0DAFFDECF6C
:10239000F6FFDDCFF7FF000EF86E0800F550036E74
:1023A000046A40C005F041C006F093EC1EF042C044
:1023B000D9FF43C0DAFFDE2A000EDD22B0EF11F0B4
:1023C00012001250800B1B6E12501224216E11AE9F
:1023D000ECEF11F0EEEF11F0EFEF11F02180215052
:1023E000D8B4F5EF11F0F7EF11F00AEF12F0212851
:1023F000D8A4FDEF11F0FFEF11F007EF12F0000E7F
:102400000F6E000E106E000E116E000E126E118E09
:1024100012EF12F0000E0F6E000E106E000E116E15
:10242000000E126E1650800B1B1A16501624206ECA
:1024300015AE1DEF12F01FEF12F020EF12F020800A
:102440002050D8B426EF12F028EF12F03BEF12F034
:102450002028D8A42EEF12F030EF12F038EF12F04F
:10246000000E136E000E146E000E156E000E166E2A
:10247000158E43EF12F0000E136E000E146E000E58
:10248000156E000E166E2050D8B449EF12F04BEFC7
:1024900012F053EF12F02150D8A451EF12F053EF85
:1024A00012F05DEF12F0000E0F6E000E106E000EB7
:1024B000116E000E126EF5EF13F015500F02F3CFF0
:1024C00026F0F4CF27F026501C6E1D6A1E6A1F6A84
:1024D0002750226E236A246A256A14501002F3CF13
:1024E00026F0F4CF27F026501C26000E1D221E22B7
:1024F0001F2227502226000E232224222522135099
:102500001102F3CF26F0F4CF27F026501C26000E40
:102510001D221E221F2227502226000E23222422A3
:1025200025221EC01FF01DC01EF01CC01DF01C6A1D
:1025300013501002F3CF26F0F4CF27F026501C26BC
:1025400027501D22000E1E22000E1F2214500F02C3
:10255000F3CF26F0F4CF27F026501C2627501D225B
:10256000000E1E22000E1F221EC01FF01DC01EF0F6
:102570001CC01DF01C6A13500F02F3CF26F0F4CFDD
:1025800027F026501C2627501D22000E1E22000E6A
:102590001F2215501002F3CF26F0F4CF27F026505B
:1025A000222627502322000E2422000E252214501A
:1025B0001102F3CF26F0F4CF27F026502226275021
:1025C0002322000E2422000E252215501102F3CFE3
:1025D00026F0F4CF27F02650176E2750186E196A90
:1025E0001A6A19C01AF018C019F017C018F0176A43
:1025F0001750222618502322195024221A5025221F
:102600001CC017F01DC018F01EC019F01FC01AF032
:10261000190E10EF13F0D8901A32193218321732FF
:10262000E82E0BEF13F017502226185023221950D2
:1026300024221A5025221EC01FF01DC01EF01CC0EF
:102640001DF01C6A205021C017F0186A1726000ED2
:102650001822820E1724266EFF0E1820276E46EFD2
:1026600013F0D89022362336243625361FAE3BEFA2
:1026700013F03DEF13F03EEF13F02280D8901C369C
:102680001D361E361F362606D8A0270624AE4BEF71
:1026900013F04DEF13F031EF13F0000E206E1FAE6C
:1026A00054EF13F056EF13F07AEF13F0FF0E1C14F3
:1026B000176EFF0E1D14186EFF0E1E14196E7F0E7E
:1026C0001F141A6E1750181019101A10D8B46BEF87
:1026D00013F06DEF13F071EF13F0010E206E7AEF2F
:1026E00013F022A076EF13F078EF13F07AEF13F0E7
:1026F0006DEF13F02050D8B480EF13F082EF13F099
:10270000A6EF13F0010E2226000E232224222522FA
:1027100025A08DEF13F08FEF13F0A6EF13F022C07A
:1027200017F023C018F024C019F025C01AF01A348D
:102730001A3219321832173217C022F018C023F09B
:1027400019C024F01AC025F0264A272A27BEB1EF67
:1027500013F0275008E12628D8A0B1EF13F0B3EF0B
:1027600013F0BDEF13F0000E226E000E236E800EEC
:10277000246E7F0E256EEBEF13F027BECAEF13F029
:10278000275006E12604D8B0C8EF13F0CAEF13F0C3
:10279000D6EF13F0000E226E000E236E000E246E94
:1027A000000E256E000E1B6EEBEF13F026C021F01D
:1027B000FF0E2216FF0E23167F0E2416000E25167E
:1027C00021A0E5EF13F0E7EF13F0E8EF13F0248E0C
:1027D000D8902130256E1B50251222C00FF023C047
:1027E00010F024C011F025C012F012000450800B2C
:1027F000116E04500424186E03AE01EF14F003EFC1
:1028000014F004EF14F018801850D8B40AEF14F044
:102810000CEF14F021EF14F01828D8A412EF14F0E4
:1028200014EF14F01CEF14F0000E016E000E026E97
:10283000000E036E000E046E038E000E046E29EF70
:1028400014F0000E016E000E026E000E036E000EFC
:10285000046E0850800B111A08500824196E07AE38
:1028600034EF14F036EF14F037EF14F019801950EC
:10287000D8B43DEF14F03FEF14F054EF14F01928E2
:10288000D8A445EF14F047EF14F04FEF14F0000E0A
:10289000056E000E066E000E076E000E086E078EA7
:1028A000000E086E5CEF14F0000E056E000E066E52
:1028B000000E076E000E086E055006100710081077
:1028C000D8A465EF14F067EF14F07FEF14F0000E5A
:1028D000016E000E026E000E036E000E046E800E7E
:1028E00003127F0E04121150041201C001F002C045
:1028F00002F003C003F004C004F0C2EF15F018505A
:10290000D8A485EF14F087EF14F091EF14F0000EC7
:10291000016E000E026E000E036E000E046EC2EF1A
:1029200015F0195018C009F00A6A095E000E0A5A1B
:102930007F0E0924126E000E0A20136E01C00DF0E6
:1029400002C00EF003C00FF004C010F0000E016EC4
:10295000000E026E000E036E000E046E000E146E6A
:10296000000E156E000E166E000E176E000E196E1C
:10297000F2EF14F01950D8B4C0EF14F0C2EF14F015
:10298000D9EF14F0D8900D360E360F361036D89099
:10299000013602360336043617AED1EF14F0D3EF0A
:1029A00014F0D4EF14F00180D89014361536163692
:1029B000173605500D5C06500E5807500F5808503A
:1029C0001058D8A0E6EF14F0E8EF14F0F1EF14F08F
:1029D000178C05500D5E06500E5A07500F5A0850BE
:1029E000105A192A190E1964F8EF14F0FAEF14F0BE
:1029F000BAEF14F00D500E100F101010D8B403EFF2
:102A000015F005EF15F01DEF15F014801DEF15F012
:102A1000D890013602360336043617AE12EF15F0A1
:102A200014EF15F015EF15F00180D8901436153617
:102A3000163617361206D8A0130603AE22EF15F08D
:102A400024EF15F008EF15F0000E196E17AE2BEFFE
:102A500015F02DEF15F051EF15F0FF0E1414096E5F
:102A6000FF0E15140A6EFF0E16140B6E7F0E171450
:102A70000C6E09500A100B100C10D8B442EF15F070
:102A800044EF15F048EF15F0010E196E51EF15F0F7
:102A900001A04DEF15F04FEF15F051EF15F044EF99
:102AA00015F01950D8B457EF15F059EF15F07DEF28
:102AB00015F0010E0126000E02220322042204A0BA
:102AC00064EF15F066EF15F07DEF15F001C009F029
:102AD00002C00AF003C00BF004C00CF00C340C323E
:102AE0000B320A32093209C001F00AC002F00BC0F1
:102AF00003F00CC004F0124A132A13BE88EF15F03D
:102B0000135008E11228D8A088EF15F08AEF15F0CD
:102B100095EF15F0000E136E1268000E016E000E98
:102B2000026E000E036E000E046E13BEA2EF15F0CF
:102B3000135006E11204D8B0A0EF15F0A2EF15F083
:102B4000B0EF15F0000E136E000E126E000E016E47
:102B5000000E026E000E036E000E046E000E116E6B
:102B600012C018F018A0B7EF15F0B9EF15F0BCEFD0
:102B700015F0038EBDEF15F0039ED8901830046E4B
:102B800073EF14F01200B4C001F0B5C002F06C0E87
:102B9000036E010E046E9CEC21F001500210D8A4CB
:102BA000D4EF15F0D6EF15F0FBEF15F0000E000195
:102BB000BC6FE6EF15F0FB0EBC25D96EDA6A000E8D
:102BC000DA22DF501DEC25F00001BC2BFB0E016E5C
:102BD000000E026E1BEC24F00001BC51B66FB76B07
:102BE0000150B65D0250B759D8A0F9EF15F0FBEFD0
:102BF00015F0DBEF15F0B4C001F0B5C002F0790EAE
:102C0000036E010E046E9CEC21F001500210D8A45A
:102C10000CEF16F00EEF16F033EF16F0000E000179
:102C2000BD6F1EEF16F0FB0EBD25D96EDA6A000EE1
:102C3000DA22DF501DEC25F00001BD2BFB0E016EEA
:102C4000000E026E1BEC24F00001BD51B66FB76B95
:102C50000150B65D0250B759D8A031EF16F033EFEE
:102C600016F013EF16F0B4C001F0B5C002F0760E06
:102C7000036E010E046E9CEC21F001500210D8A4EA
:102C800044EF16F046EF16F099EF16F065EC21F0E0
:102C900028C0B8F029C0B9F02AC0BAF02BC0BBF0E8
:102CA000B8C0A8F0B9C0A9F0BAC0AAF0BBC0ABF0D8
:102CB00050EC24F0A8C0C3F0A9C0C4F0C3C001F018
:102CC000C4C002F01BEC24F0C3C0B6F0C4C0B7F01F
:102CD00001500001B6270250B723FF0EB625D96E6A
:102CE000FF0EB721DA6E0A0EDF6E000EBE6F84EFA4
:102CF00016F0BE51C325D96E000EC421DA6EDF5026
:102D00001DEC25F00001BE2BC3C001F0C4C002F0D1
:102D10001BEC24F00001BE51B66FB76B0150B65DDD
:102D20000250B759D8A097EF16F099EF16F079EF47
:102D300016F0B4C001F0B5C002F0610E036E010ED2
:102D4000046E000E066E040E056ECBEC20F00150F2
:102D50000210D8A4AEEF16F0B0EF16F0D7EF16F0D1
:102D6000000E0001BF6FC0EF16F0FB0EBF25D96E3D
:102D7000DA6A000EDA22DF501DEC25F00001BF2BCD
:102D8000FB0E016E000E026E1BEC24F00001BF5121
:102D9000B66FB76B0150B65D0250B759D8A0D3EFEC
:102DA00016F0D5EF16F0B5EF16F0010EF76FB4C0C0
:102DB00001F0B5C002F0730E036E010E046E9CECC0
:102DC00021F001500210D8A4E8EF16F0EAEF16F057
:102DD0000FEF17F0000E0001C06FFAEF16F0FB0EB8
:102DE000C025D96EDA6A000EDA22DF501DEC25F01C
:102DF0000001C02BFB0E016E000E026E1BEC24F0D6
:102E00000001C051B66FB76B0150B65D0250B759A3
:102E1000D8A00DEF17F00FEF17F0EFEF16F0B4C0DA
:102E200001F0B5C002F0700E036E010E046E9CEC52
:102E300021F001500210D8A420EF17F022EF17F074
:102E400047EF17F0000E0001C16F32EF17F0FB0ED5
:102E5000C125D96EDA6A000EDA22DF501DEC25F0AA
:102E60000001C12BFB0E016E000E026E1BEC24F064
:102E70000001C151B66FB76B0150B65D0250B75932
:102E8000D8A045EF17F047EF17F027EF17F0B4C0C1
:102E900001F0B5C002F0680E036E010E046E000E64
:102EA000066E030E056ECBEC20F001500210D8A484
:102EB0005CEF17F05EEF17F083EF17F0000E0001E4
:102EC000C26F6EEF17F0FB0EC225D96EDA6A000EE4
:102ED000DA22DF501DEC25F00001C22BFB0E016E43
:102EE000000E026E1BEC24F00001C251B66FB76BEE
:102EF0000150B65D0250B759D8A081EF17F083EFAB
:102F000017F063EF17F0120000C12AF001C12BF097
:102F100002C12CF003C12DF01AC02AF01BC02BF007
:102F20001CC02CF01DC02DF0810E1E6EFF0E1F6EFA
:102F30002AC020F02BC021F02CC022F02DC023F09D
:102F4000180EA8EF17F0D890233222322132203207
:102F5000E82EA3EF17F020501E24286E000E1F202D
:102F6000296E29BEBDEF17F0295009E1170E285C24
:102F7000D8A0BDEF17F0BFEF17F0C9EF17F01AC0D8
:102F80001AF01BC01BF01CC01CF01DC01DF08CEF04
:102F900018F029BECEEF17F0D0EF17F040EF18F081
:102FA00028C01EF0FF0E1F6EFF0E206E7F0E216EDA
:102FB000000E226E1E66DFEF17F0E7EF17F02234E7
:102FC0002232213220321F321E2EDAEF17F01FC0BC
:102FD00024F020C025F021C026F022C027F0245084
:102FE0002A141E6E25502B141F6E26502C14206E92
:102FF00027502D14216E1E501F1020102110D8A410
:1030000004EF18F006EF18F008EF18F0BFEF17F014
:103010002AC01EF02BC01FF02CC020F02DC021F0C4
:10302000200E18EF18F0D890213220321F321E32B5
:10303000E82E13EF18F01E501F1020102110D8B4E6
:1030400024EF18F026EF18F02EEF18F024502A265F
:1030500025502B2226502C2227502D22241C1E6E58
:10306000251C1F6E261C206E271C216E1E502A1642
:103070001F502B1620502C1621502D1684EF18F0BF
:103080002AC01EF02BC01FF02CC020F02DC021F054
:10309000200E50EF18F0D890213220321F321E320D
:1030A000E82E4BEF18F01E501F1020102110D8A44E
:1030B0005CEF18F05EEF18F068EF18F0000E2A6E63
:1030C000000E2B6E000E2C6E000E2D6E84EF18F08D
:1030D000D8902A341E6E2B341F6E2C34206E2D3463
:1030E000216E1E501F1020102110D8B47AEF18F056
:1030F0007CEF18F084EF18F0000E2A6E000E2B6E95
:10310000800E2C6EBF0E2D6E2AC01AF02BC01BF045
:103110002CC01CF02DC01DF01200096E0950D8B44F
:1031200094EF18F096EF18F0B8EF18F004BE9DEF8A
:1031300018F09BEF18F0B8EF18F001C005F002C0CE
:1031400006F003C007F004C008F0051E061E071EA7
:10315000081E052A000E06220722082205C00BF0D1
:1031600006C00CF007C00DF008C00EF0C0EF18F05C
:1031700001C00BF002C00CF003C00DF004C00EF053
:103180000150021003100410D8A4C9EF18F0CBEFBF
:1031900018F0D5EF18F0000E016E000E026E000E52
:1031A000036E000E046E66EF19F0960E0A6EDFEFE6
:1031B00018F00A2AD8900E320D320C320B32000E63
:1031C0000B14056E000E0C14066E000E0D14076E27
:1031D000FE0E0E14086E0550061007100810D8A435
:1031E000F4EF18F0F6EF18F0D9EF18F004EF19F03B
:1031F0000A2A010E0B26000E0C220D220E22D89058
:103200000E320D320C320B32000E0B14056E000E16
:103210000C14066E000E0D14076EFF0E0E14086ED1
:103220000550061007100810D8A419EF19F01BEF6D
:1032300019F0F8EF18F023EF19F00A06D8900B36C2
:103240000C360D360E360DBE28EF19F02AEF19F0A8
:1032500032EF19F0020E0A6030EF19F032EF19F078
:103260001DEF19F00AB037EF19F039EF19F03AEF06
:1032700019F00D9ED8900A320AC005F0066A076A56
:10328000086A05C008F0076A066A056A05500B124D
:1032900006500C1207500D1208500E120950D8B4E7
:1032A00054EF19F056EF19F05EEF19F004BE5DEF20
:1032B00019F05BEF19F05EEF19F00E8E0BC001F004
:1032C0000CC002F00DC003F00EC004F01200000E9E
:1032D000166E000E156E000E0F6E000E0E6E73EF62
:1032E00019F0084A092A010E146E08C0F6FF09C039
:1032F000F7FF000EF86E0800F550200AD8B483EFEF
:1033000019F085EF19F0A4EF19F0F70E0A6EFF0E11
:103310000B6E08C0F6FF09C0F7FF000EF86E08003C
:10332000F5500C6E0D6A0A500C260B500D220D50F4
:1033300009E1050E0C5CD8A0A0EF19F0A2EF19F07E
:10334000A4EF19F0000E146E14C010F0116A1050A2
:103350001110D8A4AEEF19F0B0EF19F071EF19F019
:10336000BAEF19F0000E0F6E010E0E6E084A092A10
:10337000F3EF19F008C0F6FF09C0F7FF000EF86E72
:103380000800F5500A6E0B6A0B50000AD8B4CBEF58
:1033900019F0F3EF19F00A502B0AD8B4B6EF19F070
:1033A000060AD8B4B2EF19F0F3EF19F015C001F026
:1033B00016C002F0000E046E0A0E036EACEC24F090
:1033C00008C0F6FF09C0F7FF000EF86E0800F550C0
:1033D000015E000E025A300E0124156E000E02200E
:1033E000166EB6EF19F0D00E0A6EFF0E0B6E08C007
:1033F000F6FF09C0F7FF000EF86E0800F5500C6EDE
:103400000D6A0A500C260B500D220D500AE10A0ECF
:103410000C5CD8A00EEF1AF011EF1AF0010E12EFAB
:103420001AF0000E126E136A12501310D8A41BEF7C
:103430001AF01DEF1AF0D6EF19F00E500F10D8A4A5
:1034400024EF1AF026EF1AF034EF1AF015C00AF044
:1034500016C00BF00A1E0B1E0A4A0B2A0AC008F0FF
:103460000BC009F038EF1AF015C008F016C009F0CB
:1034700012007C927C94AEEF1AF080867D9C7C8456
:10348000020E5E6E060E0001F56FD7EF1AF0808611
:103490007D8E7D9C7D987C84030E5E6E050E000102
:1034A000F56FD7EF1AF080867D8E7D8A7D9C7D98A2
:1034B0007D907C84040E5E6E040E0001F56FD7EFE4
:1034C0001AF080867D8E7D8A7D827D9C7D987D90A0
:1034D0007F927C84050E5E6E030E0001F56FD7EFC0
:1034E0001AF080867D8E7D8A7D827F807D9C7D988E
:1034F0007D907F927F967C84060E5E6E020E0001A8
:10350000F56FD7EF1AF080867D8E7D8A7D827F8071
:103510007F847D9C7D987D907F927F967E9C7C842D
:10352000070E5E6E010E0001F56FD7EF1AF0808670
:103530007D8E7D8A7D827F807F847E8E7D9C7D983E
:103540007D907F927F967E9C7E987E947C84080EF0
:103550005E6E000E0001F56FD7EF1AF05E50016E3F
:10356000026A0250000AD8B4B8EF1AF0D7EF1AF086
:103570000150010AD8B43DEF1AF0030AD8B447EF5E
:103580001AF0010AD8B453EF1AF0070AD8B461EF61
:103590001AF0010AD8B471EF1AF0030AD8B483EF15
:1035A0001AF0010AD8B497EF1AF0D7EF1AF0120008
:1035B000000E3A6E000E3B6E000E3C6E000E3D6E2D
:1035C000010EF1EC24F036EC23F05CEC23F032C079
:1035D0003AF033C03BF034C03CF035C03DF0660EED
:1035E000136E660E146E660E156E3F0E166EE5C0F7
:1035F0000FF0E6C010F0E7C011F0E8C012F0E1EC07
:1036000011F00FC028F010C029F011C02AF012C02C
:103610002BF03AC02CF03BC02DF03CC02EF03DC04A
:103620002FF021EC1DF0D8B018EF1BF01AEF1BF0B3
:103630001EEF1BF073EC1BF049EF1BF0E5C028F008
:10364000E6C029F0E7C02AF0E8C02BF0E9C02CF072
:10365000EAC02DF0EBC02EF0ECC02FF021EC1DF0F5
:10366000D8B035EF1BF037EF1BF049EF1BF0E1C08E
:1036700028F0E2C029F0E3C02AF0E4C02BF0DDC05E
:103680002CF0DEC02DF0DFC02EF0E0C02FF021ECDA
:103690001DF0080E0001FF19D8A451EF1BF053EFE5
:1036A0001BF06FEF1BF05C0E286E8F0E296E520E12
:1036B0002A6E400E2B6E3AC02CF03BC02DF03CC061
:1036C0002EF03DC02FF021EC1DF0D8B06AEF1BF0BA
:1036D0006CEF1BF06FEF1BF0010E0001F86F000E96
:1036E000F1EC24F01200DEEF1BF07E887E947E9ECB
:1036F000020EFF6F060EFE6F08EF1CF07E947E88B0
:103700007E8C7E9E7F94030EFF6F050EFE6F08EF8A
:103710001CF07E947E887E8C7F867E9E7F947F9038
:10372000040EFF6F040EFE6F08EF1CF07E947E887F
:103730007E8C7F867F827E9E7F947F907D92050E19
:10374000FF6F030EFE6F08EF1CF07E947E887E8C68
:103750007F867F827D807E9E7F947F907D927D9A02
:10376000060EFF6F020EFE6F08EF1CF07E947E883F
:103770007E8C7F867F827D807D887E9E7F947F90F9
:103780007D927D9A7D9E070EFF6F010EFE6F08EF02
:103790001CF07E947E887E8C7F867F827D807D88F3
:1037A0007D8C7E9E7F947F907D927D9A7D9E80967B
:1037B000080EFF6F000EFE6F08EF1CF00001FF51B6
:1037C000016E026A0250000AD8B4E9EF1BF008EF5C
:1037D0001CF00150000AD8B475EF1BF0020AD8B4EF
:1037E0007EEF1BF0010AD8B489EF1BF0070AD8B4AA
:1037F00096EF1BF0010AD8B4A5EF1BF0030AD8B46A
:10380000B6EF1BF0010AD8B4C9EF1BF008EF1CF0AB
:103810001200000E0001DB6F00EC25F0F28EF28C3E
:10382000000E0001F86F000EFA6F36EC24F0000174
:10383000FA05D8A41EEF1CF020EF1CF02FEF1CF0AF
:10384000F851D8A426EF1CF028EF1CF02FEF1CF045
:10385000D8EC1AF0000E0001FA6F17EF1CF0F80513
:10386000D8A435EF1CF037EF1CF017EF1CF035EC47
:1038700025F07A9E80EC24F00001DC6F0A0EDC1942
:10388000D8B445EF1CF047EF1CF052EF1CF0C70E08
:10389000DB25D96EDA6A000EDA22DCC0DFFFDB2B13
:1038A0007AEF1CF00A0EDC19D8A459EF1CF05BEF7C
:1038B0001CF07AEF1CF0C70EDB25D96EDA6A000E19
:1038C000DA22DCC0DFFFDB51C56FC66B010EC527F6
:1038D000000EC623C70EC525D96E000EC621DA6EAE
:1038E000000EDF6E000EDB6FC70EB46F000EB56FFB
:1038F000C3EC15F00001F705D8A481EF1CF083EFAD
:103900001CF03AEF1CF018EC21F00001F851D8A49B
:103910008CEF1CF08EEF1CF03AEF1CF053EC25F00E
:10392000210E0001C56F760EE82EFED7C52FFCD7FD
:1039300000F07C9217EF1CF01FEF00F0033404340A
:103940000A6E0A50D8A4A7EF1CF0A9EF1CF0B3EF41
:103950001CF0000E016E000E026E000E036E000ED3
:10396000046E20EF1DF001C005F002C006F003C098
:1039700007F004C008F0200EC3EF1CF0D890083206
:10398000073206320532E82EBEEF1CF00550096EF4
:10399000038EFF0E0116FF0E0216FF0E0316000E19
:1039A0000416960E0A5E0ABEDAEF1CF0D8EF1CF081
:1039B000F0EF1CF00A50800A970FD8B0E2EF1CF02D
:1039C000E4EF1CF0E6EF1CF0A9EF1CF0D8900432F5
:1039D0000332023201320A3EE6EF1CF008EF1DF01E
:1039E0001F0E0A64F6EF1CF0F8EF1CF000EF1DF05C
:1039F000A9EF1CF0D89001360236033604360A06C9
:103A00000A50D8A406EF1DF008EF1DF0FAEF1CF0E5
:103A10000950D8B40EEF1DF010EF1DF018EF1DF097
:103A2000041E031E021E016C000E02220322042249
:103A300001C001F002C002F003C003F004C004F0B2
:103A40001200000E2814306E000E2914316E800E04
:103A50002A14326E7F0E2B14336E30503110321018
:103A60003310D8A436EF1DF038EF1DF040EF1DF0F5
:103A7000000E286E000E296E000E2A6E000E2B6EB0
:103A8000000E2C14306E000E2D14316E800E2E148C
:103A9000326E7F0E2F14336E3050311032103310CF
:103AA000D8A455EF1DF057EF1DF05FEF1DF0000E8D
:103AB0002C6E000E2D6E000E2E6E000E2F6E2BAE95
:103AC00064EF1DF066EF1DF06FEF1DF0286C291EEE
:103AD000D8B0292A2A1ED8B02A2A800E2B562FAEFB
:103AE00074EF1DF076EF1DF07FEF1DF02C6C2D1E96
:103AF000D8B02D2A2E1ED8B02E2A800E2F56000E9A
:103B0000281A000E291A000E2A1A800E2B1A000EEF
:103B10002C1A000E2D1A000E2E1A800E2F1A2C5061
:103B2000285C2D5029582E502A582F502B58D8B089
:103B30009CEF1DF09EEF1DF0A1EF1DF0D890A2EFBD
:103B40001DF0D880120004C10BF005C10CF006C1B5
:103B50000DF007C10EF001C00BF002C00CF003C065
:103B60000DF004C00EF00BC005F00CC006F00DC047
:103B700007F00EC008F0180EC3EF1DF0D890083201
:103B8000073206320532E82EBEEF1DF00550096EF1
:103B90000A6A09500A10D8A4D0EF1DF0D2EF1DF028
:103BA000F2EF1DF0D8900B34056E0C34066E0D3418
:103BB000076E0E34086E0550061007100810D8A4C2
:103BC000E4EF1DF0E6EF1DF0ECEF1DF0000E026ECD
:103BD000020E016E21EF1EF0000E026E030E016E4A
:103BE00021EF1EF009280A10D8A4F9EF1DF0FBEF11
:103BF0001DF01DEF1EF00BC005F00CC006F00DC04F
:103C000007F00EC008F0090ED890053606360736C4
:103C10000836E82E04EF1EF00550061007100810B5
:103C2000D8B415EF1EF018EF1EF0010E19EF1EF0BC
:103C3000000E016E026A21EF1EF0000E026E040EED
:103C4000016E120001C008F002C009F003C00AF0C2
:103C500004C00BF00506D8A00606052806E10628D4
:103C6000D8A435EF1EF037EF1EF044EF1EF0000E23
:103C7000026E000E016E92EF1EF0084A092A0A4AEF
:103C80000B2A0506D8A0060608C0D9FF09C0DAFF2E
:103C9000DF50D8B44EEF1EF050EF1EF07FEF1EF055
:103CA0000AC0F6FF0BC0F7FF000EF86E0800F550D3
:103CB0000009D8B45EEF1EF060EF1EF07FEF1EF03B
:103CC00005500610D8B467EF1EF069EF1EF07FEFC5
:103CD0001EF008C0D9FF09C0DAFFDF50076E0AC026
:103CE000F6FF0BC0F7FF000EF86E0800F55007183E
:103CF000D8B47DEF1EF07FEF1EF03DEF1EF008C040
:103D0000D9FF09C0DAFFDF50076E0AC0F6FF0BC00B
:103D1000F7FF000EF86E0800F550075C016E026AAE
:103D2000D8A00206120005500610D8B49AEF1EF073
:103D30009CEF1EF0A5EF1EF005500610D8A4A3EFCF
:103D40001EF0A5EF1EF0AAEF1EF0035060EC25F068
:103D5000F7EF1EF020EE04F00550D9260650DA22C7
:103D6000DE50DE10D8B4B7EF1EF0B9EF1EF0D4EF7E
:103D70001EF020EE04F00550D9260650DA2210EE8F
:103D800002F00550E1260650E222DE50E65CE650E5
:103D9000800A0B6EDE50800A0B58D8B0D2EF1EF0AE
:103DA000D4EF1EF0F7EF1EF020EE02F00550D926FA
:103DB0000650DA22DECF07F0DDCF08F005C0D9FFCC
:103DC00006C0DAFFDECF09F0DDCF0AF00750092484
:103DD000D96E08500A20DA6E03C0DFFF20EE02F031
:103DE0000550D9260650DA22DE2A000EDD22120006
:103DF0000001F3A1FEEF1EF000EF1FF00AEF1FF02D
:103E000015C00CF016C00DF013C00EF014C00FF06A
:103E1000A5EC23F018BE0FEF1FF011EF1FF017EF06
:103E20001FF017C01CF018C01DF01BEF1FF0000E94
:103E30001D6E000E1C6E000E1B6E000E1A6E2DEF16
:103E40001FF0000E046E200E036E13C005F014C0A8
:103E500006F093EC1EF01A4A1B2A1C501A5C1B50E9
:103E6000800A196E1D50800A1958D8A03AEF1FF029
:103E70003CEF1FF021EF1FF00001F3B142EF1FF004
:103E800044EF1FF04EEF1FF015C00CF016C00DF000
:103E900013C00EF014C00FF0A5EC23F015C001F014
:103EA00016C002F01BEC24F01C500124136E1D50B0
:103EB0000220146E1200000E066E04BE64EF1FF0A6
:103EC00062EF1FF06AEF1FF0036C041ED8B0042AE3
:103ED000010E066E02BE71EF1FF06FEF1FF077EF5D
:103EE0001FF0016C021ED8B0022A010E061A000E45
:103EF000086E000E076E03500410D8B482EF1FF056
:103F000084EF1FF0ACEF1FF0010E056E8CEF1FF079
:103F1000D89003360436052A04AE91EF1FF093EFD4
:103F20001FF088EF1FF0D890073608360350015C69
:103F300004500258D8A09FEF1FF0A1EF1FF0A6EF8A
:103F40001FF00350015E0450025A0780D8900432DB
:103F50000332052E93EF1FF00650D8B4B2EF1FF0D6
:103F6000B4EF1FF0B8EF1FF0076C081ED8B0082A96
:103F700007C001F008C002F01200000E7D6E000EB6
:103F80007C6E000E796E000E7E6E000E7A6E000E54
:103F90007F6E000E7B6E000E806E080E856E010E29
:103FA000866EF50E816E500E876E7E0E826E010E4D
:103FB000886E8368B90E846EF90E0E01A76F3E0EEF
:103FC0009A6F000EAF6F700EBC6F010EB46FA50E2E
:103FD000926F000EA66F000EB36F000EAE6F000E54
:103FE000996F000EBB6F000E916F000EA16F000E57
:103FF000C06F000EAD6F000EB26F000E906F000E1E
:10400000BA6F000E986F000EBF6F000EA06F000E0B
:10401000A56F8F6997699F69A469AC69B169B9692E
:10402000BE698E6996699E69A369AB69B069B86912
:10403000BD69140E746F230E176F1200000E066E0A
:1040400002BE27EF20F025EF20F02DEF20F0016CCD
:10405000021ED8B0022A010E066E04BE34EF20F014
:1040600032EF20F038EF20F0036C041ED8B0042AA1
:1040700003500410D8B43FEF20F041EF20F065EF7B
:1040800020F0010E056E49EF20F0D890033604367B
:10409000052A04AE4EEF20F050EF20F045EF20F05F
:1040A0000350015C04500258D8A059EF20F05BEF98
:1040B00020F05FEF20F00350015E0450025AD890C8
:1040C00004320332052E50EF20F00650D8B46BEFC7
:1040D00020F06DEF20F071EF20F0016C021ED8B0DF
:1040E000022A01C001F002C002F01200000E011409
:1040F000096E000E02140A6E800E03140B6E7F0E02
:1041000004140C6E09500A100B100C10D8A48BEF7D
:1041100020F08DEF20F095EF20F0000E016E000EE4
:10412000026E000E036E000E046E000E0514096E82
:10413000000E06140A6E800E07140B6E7F0E081414
:104140000C6E09500A100B100C10D8A4AAEF20F026
:10415000ACEF20F0B4EF20F0000E056E000E066EFE
:10416000000E076E000E086E055001180FE1065094
:1041700002180CE10750031809E108500418D8B4DC
:10418000C4EF20F0C6EF20F0C9EF20F0D890CAEFBE
:1041900020F0D880120001C009F002C00AF003C06C
:1041A0000BF004C00CF0DCEF20F00506D8A00606EA
:1041B000094A0A2A0B4A0C2A05500610D8B4E3EF24
:1041C00020F0E5EF20F0F6EF20F00BC0D9FF0CC097
:1041D000DAFF09C0E1FF0AC0E2FFDE50E618D8B4FA
:1041E000F4EF20F0F6EF20F0D5EF20F005500610A8
:1041F000D8A4FDEF20F0FFEF20F005EF21F0000E36
:10420000026E000E016E17EF21F009C0D9FF0AC03F
:10421000DAFFDF50076E0BC0D9FF0CC0DAFFDF50AA
:10422000086E0850075C016E026AD8A002061200F0
:1042300097EC24F032C03AF033C03BF034C03CF08D
:1042400035C03DF07B0E286E140E296E3E0E2A6E90
:10425000400E2B6E3AC02CF03BC02DF03CC02EF02F
:104260003DC02FF021EC1DF0D8A039EF21F03BEF3D
:1042700021F048EF21F0080E5E18D8B442EF21F08B
:1042800044EF21F048EF21F039EC1AF064EF21F00F
:10429000CD0E286ECC0E296E2C0E2A6E400E2B6E83
:1042A0003AC02CF03BC02DF03CC02EF03DC02FF0AA
:1042B00021EC1DF0D8A05FEF21F061EF21F064EF59
:1042C00021F0000E0001F86F1200000E316E000E9A
:1042D000306E1B0E69EC24F001C030F002C031F0EA
:1042E00030C001F031C002F0036A046A000E8DECA8
:1042F00018F001C00FF002C010F003C011F004C0AC
:1043000012F00D0E136E680E146E530E156E3B0EEA
:10431000166EE1EC11F00FC02CF010C02DF011C0A2
:104320002EF012C02FF02CC028F02DC029F02EC086
:104330002AF02FC02BF01200A2EF21F0014A022A2E
:10434000034A042A03C0D9FF04C0DAFF01C0E1FF19
:1043500002C0E2FFDE50E618D8A4B1EF21F0B3EFBF
:1043600021F0BFEF21F001C0D9FF02C0DAFFDF501A
:10437000D8A4BDEF21F0BFEF21F09EEF21F001C0E6
:10438000D9FF02C0DAFFDF50056E03C0D9FF04C0B9
:10439000DAFFDF50066E0650055C016E026AD8A097
:1043A0000206120058C05CF059C05DF0000E00011A
:1043B000EE6F000EED6FF0EF21F056C040F057C0E9
:1043C00041F05C0E426E000E436E5AC044F05BC07A
:1043D00045F099EC0FF040500001ED274150EE23DD
:1043E0005CC0F6FF5DC0F7FF000EF86E0800F550E8
:1043F0000009D8A4FEEF21F000EF22F0DDEF21F05C
:10440000EDC056F0EEC057F01200A00EF66E490E49
:10441000F76E000EF86E01EE5BF010EE21F0090071
:10442000F5CFEEFFE550E150FAE1CE0EF66E4A0E02
:10443000F76E000EF86E0900F5CFFBF00900F5CF1E
:10444000FCF00900F5CFFDF001EE00F05B0EEE6A26
:10445000E806FDE100EEDDF01E0EEE6AE806FDE185
:104460005E6A5F905F92000109EF1CF0BF0E096E5B
:10447000FF0E0A6E07C00BF008C00CF009500B26A7
:104480000A500C220C500AE11A0E0B5CD8A04BEF1C
:1044900022F04EEF22F0010E4FEF22F0000E0D6ED3
:1044A0000E6A0D500E10D8B458EF22F05AEF22F0D9
:1044B00061EF22F0200E0710076E0850086E65EFBE
:1044C00022F007C007F008C008F0120003C007F090
:1044D00004C008F001C009F002C00AF00750056EE0
:1044E0000850066E074A082A05C0F6FF06C0F7FF07
:1044F000000EF86E09C0D9FF0AC0DAFF094A0A2A7D
:104500000D0EF76403D00800F55005D0F6CFE1FF9B
:10451000F7CFE2FFE750DF6EDF50D8A492EF22F032
:1045200094EF22F06EEF22F012009C0E0001A06FBB
:10453000000EA16F98C0A2F099C0A3F0000EA56F65
:10454000000EA46F000EA76F000EA66FA20E566E8F
:10455000000E576E9AC058F09BC059F0A00E5A6ECC
:10456000000E5B6ED2EC21F00001A4519825D96EAB
:10457000A5519921DA6E000EDF6E1200010E076E52
:10458000200E01180210D8B4C8EF22F0CAEF22F0B2
:10459000E3EF22F0F70E036EFF0E046E01C005F08C
:1045A00002C006F00350052604500622065009E119
:1045B000050E055CD8A0DFEF22F0E1EF22F0E3EF7B
:1045C00022F0000E076E07C001F0026A1200000E12
:1045D0006A6E000E6B6E000E6C6E000E6D6E000E3D
:1045E000686E000E696E000E666E000E0F015F6F42
:1045F000000E5D6F000E5E6F000E596F000E5A6F59
:10460000000E5B6F000E656E000E586F000E566F49
:10461000000E576F840E606E000E5C6F1200080E65
:104620000E01E26F900EE06F240EE16F190EDE6F47
:10463000000EDF6F000E016E000E026E000E036EA4
:1046400045EC25F0000E016E000E026E000E036EAA
:104650003EEC25F0000E016E000E026E000E036EA1
:104660004CEC25F0000E0001F96F12007C847C9266
:10467000809465EC21F028C036F029C037F02AC0BC
:1046800038F02BC039F0E5C0E9F0E6C0EAF0E7C049
:10469000EBF0E8C0ECF036C0E5F037C0E6F038C02B
:1046A000E7F039C0E8F036C032F037C033F038C038
:1046B00034F039C035F012007C947C92808465EC33
:1046C00021F028C036F029C037F02AC038F02BC0BE
:1046D00039F0DDC0E1F0DEC0E2F0DFC0E3F0E0C0C1
:1046E000E4F036C0DDF037C0DEF038C0DFF039C0AE
:1046F000E0F036C032F037C033F038C034F039C0A3
:1047000035F01200000E2C1A000E2D1A000E2E1A73
:10471000800E2F1A28C001F029C002F02AC003F031
:104720002BC004F02CC005F02DC006F02EC007F001
:104730002FC008F039EC0DF001C028F002C029F0BC
:1047400003C02AF004C02BF01200000E126E000EFF
:10475000116EB6EF23F010C003F0046A0EC005F02E
:104760000FC006F093EC1EF0114A122A11500C24CF
:10477000D96E12500D20DA6EDF50106E1050D8A492
:10478000C4EF23F0C6EF23F0ABEF23F01200BF0E0F
:10479000036EFF0E046E01C005F002C006F0035068
:1047A00005260450062206500AE11A0E055CD8A020
:1047B000DCEF23F0DFEF23F0010EE0EF23F0000E3B
:1047C000016E026A12000150021003100410D8B4E6
:1047D000ECEF23F0EEEF23F0F6EF23F0000E011ADA
:1047E000000E021A000E031A800E041A01C001F016
:1047F00002C002F003C003F004C004F01200D00EA7
:10480000036EFF0E046E01C005F002C006F00350F7
:1048100005260450062206500AE10A0E055CD8A0BF
:1048200014EF24F017EF24F0010E18EF24F0000E1F
:10483000016E026A120001C003F002C004F023EF0F
:1048400024F0014A022A01C0D9FF02C0DAFFDF507A
:10485000D8A42DEF24F02FEF24F021EF24F0035003
:10486000015C016E04500258026E12007C847C923E
:1048700080847D9C7D987D907F927F967E9C7E98A3
:104880007E94BFEC24F080867D8E7D8A7D827F8041
:104890007F847E8E080E0001FE6F000EFF6F1200F7
:1048A000AC0E0001986F000E996F010E9A6F0E0EFC
:1048B0009B6FA8C09CF0A9C09DF0AAC09EF0ABC0A1
:1048C0009FF095EC22F0AC0E0001A86F000EA96FCE
:1048D0001200056E05C05FFF608E609C608060B056
:1048E00074EF24F076EF24F06FEF24F06450046E40
:1048F000036A63500324016E000E0420026E12004E
:104900000E0137AB86EF24F088EF24F080EF24F01F
:10491000000E0001F96F0E01E0A391EF24F093EF78
:1049200024F095EF24F0E099E089DC5112007C92AC
:104930007C9465EC21F028C036F029C037F02AC0FD
:1049400038F02BC039F036C032F037C033F038C001
:1049500034F039C035F0120001500302F3CF05F0F6
:10496000F4CF06F001500402F35006260250030271
:10497000F350062605C001F006C002F01200809632
:104980007D9E7D9A7D927F907F947E9E7E9A7E967C
:104990007E927F9E7996799280927A907C9C12008A
:1049A00031390A31380A31342C322E300A00313193
:1049B0000A0031310A31370A31360A31330A3132CD
:0149C0000AEC
:1049C200040EB36E000EB26E000EB46EF10EB06E37
:1049D200000EAF6E0E01389B2E8BE90EB16E1200E7
:1049E200016E0104D8A4F8EF24F0FAEF24F0FDEFF1
:1049F20024F08094FFEF24F07C848084120065EC24
:104A020025F00FEC25F0BDEC1FF029EC25F0E7ECCA
:104A120022F0E1EC24F00FEC23F01200000E0E0164
:104A22004C6F000E4D6F000E4E6F000E4F6F000E5A
:104A3200506F000E516F1200016E0E0137A924EF64
:104A420025F026EF25F01EEF25F001C0DDFE120055
:104A5200620E0E01436F000E456F000E476F020E8D
:104A6200496F000E486F12007C9480947C82070E7E
:104A72000001F56F010E5E6E120001C07FF102C0EF
:104A820080F103C081F1120001C082F102C083F102
:104A920003C084F1120001C07CF102C07DF103C0A9
:104AA2007EF112007A9E530EE82EFED700F07A8E27
:104AB20012000E01389B010E0001FA6F1200026E05
:0F4AC20002501DEC25F01200F29A1200300A008B
:020000040020DA
:10000000FF0FFF0FFF0FFF0FFF0FFF0FFF0FFF0F80
:020000040030CA
:0C000000ECFFFFFF9FFFFFFFFFFFFFFF73
:00000001FF
